01029-BCBA          21060400RENDICION A EMPRESAS RISC
10610000000000000082021060410000000001143000000000000000000063REGISTRO CIV000002005423                                  60100001
11610090021060400082021060410000000000001143000000000000000000063                                                       60100001
12610090021060400082021060410000000FF7B6B36EA8541499C9A8380309160751300005519000008450009062160000000000008450000000000000000001
12610090021060400082021060410000000BDA7846ECFDF4D10A9F1436A302BC3FD1300005532000009000026062150000000000009000000000000000000001
12610090021060400082021060410000000A2AD9353BBB34F0A953D49216253C8B11300005534000009000026062120000000000009000000000000000000001
12610090021060400082021060410000000BCB8760BFF58416B8B16C0A4E6D992421300005468000005600007042140000000000005600000000000000000001
12610090021060400082021060410000000285E4B0F89E5454C9FFD481B51C94A7B1300005467000004500007042100000000000004500000000000000000001
12610090021060400082021060410000000E6B416A4D7A747AEB0210BA226115EFB1300005498000008450019052180000000000008450000000000000000001
126100900210604000820210604100000006A953E095142446B88C13FA43D6031791300005500000145000003062140000000000145000000000000000000001
126100900210604000820210604100000003BBE2D29A1EC4C2DB97176B9E0EF29881300005502000044250003062140000000000044250000000000000000001
126100900210604000820210604100000006504DB0E0BB74E2FB4DDD522E4F3E1901300005516000008450009062150000000000008450000000000000000001
1261009002106040008202106041000000068125DECA46A4977B6F71F8350E28A4E1300005515000008450009062160000000000008450000000000000000001
1261009002106040008202106041000000061DC9D4A3ADE497EBDD09E12572ECA691300005522000008450009062130000000000008450000000000000000001
126100900210604000820210604100000004EA81906555F4B0C8041AC2C6510740A1300005523000008450009062170000000000008450000000000000000001
126100900210604000820210604100000002EA35C1797A34E4681A059DEA9C6ADBE1300005506000008450003062160000000000008450000000000000000001
12610090021060400082021060410000000C8DFC7481F79495CB8F898C1437B6BE81300005507000008450003062170000000000008450000000000000000001
126100900210604000820210604100000002946A4ED9B4A443BA7400C557351CC111300005508000008450003062140000000000008450000000000000000001
12610090021060400082021060410000000911CFCC32DFB472A809B182ED65726D41300005473000008450008042140000000000008450000000000000000001
1261009002106040008202106041000000095E08C8203684B4BB7BB5491C25932981300005499000189250003062160000000000189250000000000000000001
1261009002106040008202106041000000099EB5705F98440A8A326CC60DE88F0F71300005501000061300003062170000000000061300000000000000000001
1261009002106040008202106041000000050B0E76B5FC3454A9142E62A319F83631300005470000004500007042130000000000004500000000000000000001
12610090021060400082021060410000000A8B88AF98DDA4E09A5CFDFA8636381C01300005485000040500030052150000000000040500000000000000000001
12610090021060400082021060410000000FBA9F97F36B046F390E3125AACE1BEDE1300005486000045000030052140000000000045000000000000000000001
12610090021060400082021060410000000E060FF2EDD474743821E87FEDBD724001300005477000004500030052170000000000004500000000000000000001
12610090021060400082021060410000000C10C36ABA0F44082A9E8B10AC10802831300005510000008450003062160000000000008450000000000000000001
12610090021060400082021060410000000D5629CEEFAF44F29AD0D253958F0DBAB1300005495000009000030052140000000000009000000000000000000001
12610090021060400082021060410000000BAA6243B5B124B75BB95A3D557D6BACD1300005511000008450003062150000000000008450000000000000000001
1261009002106040008202106041000000090532BE745964E1B896A3C2007DF31461300005491000011250030052100000000000011250000000000000000001
12610090021060400082021060410000000A56FD6340E6E48ECA7C6D5D646ADE2A71300005493000023050030052160000000000023050000000000000000001
12610090021060400082021060410000000BB554815CAE342CBB047A078268D121F1300005496000020250030052120000000000020250000000000000000001
126100900210604000820210604100000003C5426BAABB54A789D39AA84C15232811300005478000009000030052160000000000009000000000000000000001
12610090021060400082021060410000000FEE1D252614C46E9ACEC6F95E5F6CD671300005487000004500030052100000000000004500000000000000000001
126100900210604000820210604100000003BEC709F2D31475EBA356577940DBA151300005488000004500030052110000000000004500000000000000000001
12610090021060400082021060410000000A2BE96FD4E0E4D16BEDED02B378917AB1300005492000021300030052110000000000021300000000000000000001
1261009002106040008202106041000000085106578403C4687A7148AB5848C7A021300005480000018000030052190000000000018000000000000000000001
12610090021060400082021060410000000410415FB80B44CFA91E95BFEE8124C491300005482000027000030052150000000000027000000000000000000001
12610090021060400082021060410000000BCD1D53630E7434781CB0147BB9429531300005484000036000030052100000000000036000000000000000000001
12610090021060400082021060410000000593FA1AE9437499F8F80392719A24C401300005489000004500030052180000000000004500000000000000000001
12610090021060400082021060410000000F2065657AEBF41E7B3EDB69DA2ADF06E1300005479000013500030052150000000000013500000000000000000001
126100900210604000820210604100000002AA619FA11034211A96451374709E2C51300005481000022500030052180000000000022500000000000000000001
12610090021060400082021060410000000928D864E827D4674A2DF88C7B18685951300005483000031500030052170000000000031500000000000000000001
12610090021060400082021060410000000AD5464F29D1A4BA88EC44B5638E15AEC1300005475000004500016042190000000000004500000000000000000001
126100900210604000820210604100000005FC813BCF5F34C84A905B483231A7FE91300005530000008450017062150000000000008450000000000000000001
126100900210604000820210604100000006E0F9E10DFD04BAABC261C086F9CF0BF1300005513000008450009062110000000000008450000000000000000001
126100900210604000820210604100000008F051047A2664D6892BC4E66B4D6E9C61300005520000008450009062170000000000008450000000000000000001
12610090021060400082021060410000000D0FC4B77BFDB434A9332281DA3F8CDB01300005505000008450003062110000000000008450000000000000000001
1261009002106040008202106041000000004BDFFDC83464B8F991DD33CC5928EC91300005512000008450004062160000000000008450000000000000000001
126100900210604000820210604100000000B4E6A17E04B4F4BB9887B23F5C0783E1300005525000008450011062170000000000008450000000000000000001
12610090021060400082021060410000000F4CCEAE243FF4F6EA17CD4621B21C7771300005526000008450011062180000000000008450000000000000000001
126100900210604000820210604100000005BA517CE584C439583D7EF47E04F5BFE1300005476000004500028052170000000000004500000000000000000001
126100900210604000820210604100000001FF6676E5DFB4356B4D0A4A1F6CE73A71300005503000018000003062170000000000018000000000000000000001
12610090021060400082021060410000000BFA4F0A43B97496BB9BB60AB8D663A5B1300005509000008450003062120000000000008450000000000000000001
126100900210604000820210604100000002E26DE7F3CFF422B81DCE85D6FE346B31300005518000008450009062100000000000008450000000000000000001
12610090021060400082021060410000000F6A19CDFF5A14B30A642ACD6F17018D01300005529000008450013062110000000000008450000000000000000001
12610090021060400082021060410000000EFB4439216554893BE175B863A62A0FC1300005533000019500026062190000000000019500000000000000000001
126100900210604000820210604100000004C58C6C87F534D84A355C3FB6E8F72031300005497000008450002062100000000000008450000000000000000001
126100900210604000820210604100000007F753A8C099E4AFAA57ABED8072A6FA01300005521000008450009062170000000000008450000000000000000001
12610090021060400082021060410000000EC7CCC4708464B0AA4021BCD74AF247C1300005490000004500030052190000000000004500000000000000000001
1261009002106040008202106041000000019FBB062FE644E7A98A9D3E1A15A54A21300005494000008450030052190000000000008450000000000000000001
126100900210604000820210604100000005D20154335DF4ABEB2056E6A3F4872911300005514000008450009062110000000000008450000000000000000001
126100900210604000820210604100000002FB811FD738E429F8586BC9A464EC4161300005517000008450009062100000000000008450000000000000000001
126100900210604000820210604100000001D559F2D7B3F481291CF1A5B566AAF311300005527000008450011062170000000000008450000000000000000001
1261009002106040008202106041000000061055A33D38145C19725DA27DE6E224C1300005504000020250003062120000000000020250000000000000000001
126100900210604000820210604100000003B731B4C627847648FB084D1176B6C7C1300005472000008450008042150000000000008450000000000000000001
126100900210604000820210604100000002A5E96E8C0DB4190AD78FA4C671347410300000066000033384026072190000000000033384000000000000000001
10610000000000000082021060410000000010476922900000000000001421DAI - EDIFIC000002005423                                  60100001
11610090021060400082021060410000000000010476922900000000000001421                                                       60100001
1261009002106040008202106041000000017AF92414ABD45E38F391F64E11AEAF70300000065000033705024062160000000000033705000000000000000001
12610090021060400082021060410000000ECAB5A195B6747908CB2B536154DD8FF0300000068000032742022092140000000000032742000000000000000001
1261009002106040008202106041000000082CC02B1ABF5417195D7AC1949B12ED20300000109000001836723082130000000000001836700000000000000001
12610090021060400082021060410000000B3DA5D17AF5648DBB3D8E664C9384EFF0300000062000034668026032150000000000034668000000000000000001
126100900210604000820210604100000008EF95BF794BF4A2A86B2388BEBA0E5170300000063000034347026042150000000000034347000000000000000001
12610090021060400082021060410000000AAE6E1CD46C6497EAB07BE9190A518EA0300000067000033063023082190000000000033063000000000000000001
1261009002106040008202106041000000032DC36AF29C44326B378DBEA76A9BEDE0300000069000032421022102160000000000032421000000000000000001
1261009002106040008202106041000000085DA653DB8B94E83B27C0B65BEC745E70300000105000001908126042160000000000001908100000000000000001
126100900210604000820210604100000004F8D919950EB45789F4C0DA6A7FE80810300000106000001890225052120000000000001890200000000000000001
126100900210604000820210604100000008836C13CD24D42F2BAC3D437015209BC0300000107000001872424062140000000000001872400000000000000001
12610090021060400082021060410000000513609ECA5354F4C8D9570C71076AF7B0300000108000001854626072110000000000001854600000000000000001
1261009002106040008202106041000000086C69180C28845F28AAD80D0A63517FE0300000110000001818922092100000000000001818900000000000000001
12610090021060400082021060410000000AC935A7209CE445C88FA37FF2A099C920300000111000001801122102190000000000001801100000000000000001
12610090021060400082021060410000000ADE8D0F05F8A4BEAB11132EF7A18024F0300007909000004213103082110000000000004213100000000000000001
12610090021060400082021060410000000BE3F09422484411485894CCE7630F6400300000023000004333525032110000000000004333500000000000000001
12610090021060400082021060410000000B10583E1939F4ADD9F7BE94EC038E4180300000024000004293326042100000000000004293300000000000000001
126100900210604000820210604100000003240375DAB4B41338F4F3A007D74F0970300000025000004253224052100000000000004253200000000000000001
126100900210604000820210604100000007AFB05FB42054848B0D68FD5AA37E7D50300000026000004213123062170000000000004213100000000000000001
12610090021060400082021060410000000885984BF7DA24AA9AE2145826866D8440300000027000004173023072190000000000004173000000000000000001
1261009002106040008202106041000000085C39A41F26E4F39AAB947B6D68C850D0300000028000004132823082190000000000004132800000000000000001
126100900210604000820210604100000003D8F10915AAF4CF79F6B54CF9BEB3F9D0300000029000004092721092150000000000004092700000000000000001
12610090021060400082021060410000000457C855B7BD6407B9B8E34EE9E60F6860300000030000004052621102180000000000004052600000000000000001
126100900210604000820210604100000004B0F5DA51CAE4A3F92EEC3F5F87A24AD0300008582000010017804062150000000000010017800000000000000001
126100900210604000820210604100000008F0F79B401CD4A49812BC8783DFAFC810300007905000004373605042150000000000004373600000000000000001
126100900210604000820210604100000005C90D61F170F4A4CA11797669B3D21B80300004180000013120802042140000000000013120800000000000000001
12610090021060400082021060410000000B7804E37E4DA4677A4B796FB1E8BCFBC0300004186000012398629092130000000000012398600000000000000001
1261009002106040008202106041000000077FCEDD15C1242F6B0A0B836F05402F10300008585000009737002092160000000000009737000000000000000001
12610090021060400082021060410000000BC2349C34CFA45B6BA2CDBD007C8985A0300004181000013000503052130000000000013000500000000000000001
126100900210604000820210604100000005F54DCBDE91E4B57B946475D1B2FFBB10300004187000012278229102100000000000012278200000000000000001
126100900210604000820210604100000004F69DDB8C8A44207A3939A3BDBB264040300004182000012880101062110000000000012880100000000000000001
12610090021060400082021060410000000E4EAA35FED9C47A38A47584A7C6F71E40300004183000012759701072120000000000012759700000000000000001
126100900210604000820210604100000006E8CB4118D65460BBA82CEF97BD19D220300004188000012157829112140000000000012157800000000000000001
12610090021060400082021060410000000EEA2147BD36945B886566267851170FB0300008587000009549701112160000000000009549700000000000000001
12610090021060400082021060410000000C5DA99510E0149AF9D9146F6C74AF4F80300036491000001961622032170000000000001961600000000000000001
126100900210604000820210604100000001D3A0B1545534568A9AD634980F0D2070300036492000001943719042170000000000001943700000000000000001
12610090021060400082021060410000000BC835651B3CD4524BE1A7317BF601A1F0300036493000001925919052110000000000001925900000000000000001
126100900210604000820210604100000002A1C825065404ADCAF4B1EE3A6F2CF900300036494000001908118062170000000000001908100000000000000001
12610090021060400082021060410000000550A05FFDD1B4B1582C4D9F10F87FF580300036495000001890219072110000000000001890200000000000000001
12610090021060400082021060410000000958B796BCC1448A691700BBEC18054470300036496000001872417082170000000000001872400000000000000001
12610090021060400082021060410000000F7FD92A120BF45E88D77FF3BAC965D030300036497000001854616092110000000000001854600000000000000001
126100900210604000820210604100000003B7A448329104A50AAD8E561D0DDD9260300036499000001818915112120000000000001818900000000000000001
12610090021060400082021060410000000FB5EBC19BCDF4266BC4FE63555C35F0D0300036500000001801115122180000000000001801100000000000000001
126100900210604000820210604100000007528533A01784C16B1A36958B96831950300042471000003923222032140000000000003923200000000000000001
126100900210604000820210604100000006B7659D8CCAC4B9EABBCEEEADEBEFBD30300042474000003816221062170000000000003816200000000000000001
126100900210604000820210604100000002445FD8D8A164F9792744A340EED0E6C0300042478000003673518102150000000000003673500000000000000001
126100900210604000820210604100000008EB88764FCFA4274B4EBAA5010782F160300042477000003709220092110000000000003709200000000000000001
126100900210604000820210604100000000BFD1CD44AA644B8940C018E4FF4CD120300042480000003602217122160000000000003602200000000000000001
126100900210604000820210604100000006E36B3DE3305489B9BD8B7E230EDA5940300042101000012398618102110000000000012398600000000000000001
12610090021060400082021060410000000FB9D254327204289A5DBB2B1E21BA1E60300042475000003780520072140000000000003780500000000000000001
12610090021060400082021060410000000D74047A526274CE98EE330DDD5E768C90300042904000002942522032110000000000002942500000000000000001
12610090021060400082021060410000000A597F31EEB6A4A01B8C3F349A50F615B0300042905000002915721042120000000000002915700000000000000001
12610090021060400082021060410000000A5D9C727371A45A3BDF5DF2E781D5FF20300042906000002889021052140000000000002889000000000000000001
12610090021060400082021060410000000A055C1136A6E48DFAB8746ECC19777230300042907000002862221062150000000000002862200000000000000001
1261009002106040008202106041000000058441B5192904C2DBF5AFBACA252698E0300042908000002835520072120000000000002835500000000000000001
126100900210604000820210604100000003160C5FFA7BD483FA55A28D9B2B8A6D90300042909000002808719082120000000000002808700000000000000001
1261009002106040008202106041000000046D53D4619664923882D90E6F95EEE430300042910000002782020092100000000000002782000000000000000001
12610090021060400082021060410000000F219333B3C534C3394DEDDBAC91E416E0300042911000002755218102170000000000002755200000000000000001
12610090021060400082021060410000000F22696F87E2749018019506EBBAA5A780300042912000002728517112150000000000002728500000000000000001
12610090021060400082021060410000000B9FB69CBB93E44EBAB0BB9FF4E1A50F60300041708000004774822032120000000000004774800000000000000001
12610090021060400082021060410000000371D8F091F164DCA82C4D6D5930924620300042094000013241222032180000000000013241200000000000000001
12610090021060400082021060410000000EA33FFA351D241CC9A7128D04B7E826F0300042095000013120821042110000000000013120800000000000000001
1261009002106040008202106041000000056E6A2737FD544F685F9DE23356ACCD20300042096000013000521052180000000000013000500000000000000001
12610090021060400082021060410000000A233F4E6CFD744949F590F753028ED080300042097000012880121062150000000000012880100000000000000001
12610090021060400082021060410000000B9B1F454FD7B415A890DAFDDF1368D490300042098000012759720072140000000000012759700000000000000001
1261009002106040008202106041000000054441939FB7B4651B3EE11861B41A5C30300042099000012639319082180000000000012639300000000000000001
1261009002106040008202106041000000031536DB722D44FE3B21C5F8156E932310300042100000012519020092130000000000012519000000000000000001
126100900210604000820210604100000005EE31458DA9047F584D9AA2528AB0F990300042103000012278217112130000000000012278200000000000000001
12610090021060400082021060410000000E8DCE58ED0954F65BB9DA7F1CBEF0FD80300042104000012157817122160000000000012157800000000000000001
12610090021060400082021060410000000E05FD3A94F6E4756A267FDADD65632270300042472000003887521042190000000000003887500000000000000001
126100900210604000820210604100000003367ED0987E14B469C1E45019E818CDD0300042479000003637917112170000000000003637900000000000000001
126100900210604000820210604100000005F0CDC0008CF4346A3CAFC5D0CD5A0FA0300098467000007255910092120000000000007255900000000000000001
12610090021060400082021060410000000086F600F445244EF9021FE11E920FC3C0300098468000007186811102110000000000007186800000000000000001
12610090021060400082021060410000000CBA5B7F54A564BBB986C153A3744DCBD0300098469000007117709112180000000000007117700000000000000001
126100900210604000820210604100000003D73FD97BA5C4E10AEB56324A92A8E0A0300098470000007048609122140000000000007048600000000000000001
12610090021060400082021060410000000F8FAAA638B334750B86715B8330861BD0300098471000006979508012260000000000006979500000000000000001
12610090021060400082021060410000000D879131EC07F4D89A2F3BA30DA16DF050300121476000009168019082180000000000009168000000000000000001
12610090021060400082021060410000000F041EA8575634A1DA0EB64F6DF8697FB0300121477000009081520092170000000000009081500000000000000001
126100900210604000820210604100000004A741E53127149B7ABDA860B891822A90300121478000008995018102140000000000008995000000000000000001
12610090021060400082021060410000000A41D035EE3CD4790B85494C8009E98570300121479000008908517112170000000000008908500000000000000001
12610090021060400082021060410000000C79C71AEFCD6418B9E16A17D5C9CA43F0300121480000008822017122160000000000008822000000000000000001
12610090021060400082021060410000000AE667F59B71F46528F4D7AE8B72D0F870300121481000008735516012210000000000008735500000000000000001
126100900210604000820210604100000007EA13D5B6D8D440B916D4AD0456214D00300065005000001471230032120000000000001471200000000000000001
12610090021060400082021060410000000C7A86C8A1F9F4BC7B4AAFC5C22875FDD0300065006000001457829042110000000000001457800000000000000001
1261009002106040008202106041000000074C2798AFD834FF4B71E62067C2C5DF30300065007000001444531052120000000000001444500000000000000001
12610090021060400082021060410000000CE50D0B791A04CF08B299C84C7337CAE0300065008000001431128062160000000000001431100000000000000001
126100900210604000820210604100000000B9940E7D9D0461395ACBDD555167A3E0300065009000001417728072190000000000001417700000000000000001
126100900210604000820210604100000008BAF369C0CAD45E69A6F95E93BB2EC2F0300065010000001404327082180000000000001404300000000000000001
126100900210604000820210604100000000E8D95FAC02B47EE89451C429A09EE330300065011000001391027092130000000000001391000000000000000001
12610090021060400082021060410000000E49768DBBC224F588A3D9483DF1677CC0300065012000001377626102110000000000001377600000000000000001
126100900210604000820210604100000001F782D08E44745C686AA717800D323D70300065014000001350827122110000000000001350800000000000000001
1261009002106040008202106041000000092007F80D52845BABFA3E861849CD2840300068134000013118629062150000000000013118600000000000000001
12610090021060400082021060410000000E7CAD2AA74954800AA440F6100BA85480300068140000012505626112110000000000012505600000000000000001
12610090021060400082021060410000000C2DADB5827524C95BED901ECA95062480300117608000003370421062130000000000003370400000000000000001
1261009002106040008202106041000000083C7ECD951484CC68392972616BE3F1F0300117609000003339219072140000000000003339200000000000000001
12610090021060400082021060410000000DF4F2849579446E79CD758F2A4B3CAE50300079636000008115405052120000000000008115400000000000000001
1261009002106040008202106041000000065D92363EFAD40758A4E3D95CD9943DE0300079643000007594301122130000000000007594300000000000000001
126100900210604000820210604100000008D305490AFC14A178BC5F8002661571D0300091162000007423112032170000000000007423100000000000000001
12610090021060400082021060410000000BE3C702FB0694CF9AEAB55898F210B480300121603000002969222032150000000000002969200000000000000001
1261009002106040008202106041000000091182FAF852D4CFE8AD23FB856888B700300121608000002835519082130000000000002835500000000000000001
12610090021060400082021060410000000C588543EED8A4F66ACF3C34004761ECD0300082556000019375804082190000000000019375800000000000000001
126100900210604000820210604100000004C79A540D3D540C1A552A16E5D0983020300007907000004293304062100000000000004293300000000000000001
126100900210604000820210604100000001AAE822DD80E4001AB405C432AAD4B490300007912000004092701112190000000000004092700000000000000001
12610090021060400082021060410000000D3B5948A7928442E9C0A2DA6732B95480300007913000004052601122160000000000004052600000000000000001
12610090021060400082021060410000000C3FEB56FF08C42B48855E1A5AF42E9870300004185000012519030082110000000000012519000000000000000001
12610090021060400082021060410000000283DE342E9934D649B0BE307528560ED0300008579000010205105042150000000000010205100000000000000001
126100900210604000820210604100000005A08A021BECF49F0BCDF0397703B574E0300008580000010111505052110000000000010111500000000000000001
1261009002106040008202106041000000076899DFD6BAC4C598342A8D763D5593D0300008583000009924205072110000000000009924200000000000000001
126100900210604000820210604100000009475064DA2AC4C31BF5AB0C4D7847ED20300008586000009643304102140000000000009643300000000000000001
12610090021060400082021060410000000122B1AC37A264D16879AB9DD3E0A73DC0300010745000002915706042110000000000002915700000000000000001
126100900210604000820210604100000008B4C244E7B1B42869E186A2D2C780D7A0300010748000002862207062140000000000002862200000000000000001
12610090021060400082021060410000000691089AB3BD348129169DF96EADB681F0300010749000002835505072190000000000002835500000000000000001
12610090021060400082021060410000000CFE17830260B4660A5470385A72F06680300010750000002808704082110000000000002808700000000000000001
1261009002106040008202106041000000041FF3A4A996D4410B7565449B22AED210300010751000002782003092140000000000002782000000000000000001
12610090021060400082021060410000000E1217E6D561B4BA381AB3FB46F420F610300010752000002755204102150000000000002755200000000000000001
126100900210604000820210604100000001DA8682ED6ED4A3485A7BEB725FA826C0300010753000002728502112150000000000002728500000000000000001
126100900210604000820210604100000005AF205F5CEDA4F3583FAD928A1236B130300010754000002701702122180000000000002701700000000000000001
1261009002106040008202106041000000098EBAEB7521240BEB7CFB4617E39B1C50300113212000011966119042170000000000011966100000000000000001
12610090021060400082021060410000000C80AEA70BF914685895DFA2E4B8C7AC00300113214000011748518062100000000000011748500000000000000001
1261009002106040008202106041000000054573A24C28146DF9B22DCDDFE96196A0300068037000007655829072180000000000007655800000000000000001
12610090021060400082021060410000000511696DB847B493CB7ADACEC0E02811C0300068038000007583630082110000000000007583600000000000000001
126100900210604000820210604100000004706FD351D9F4CFA9C027D3177B942970300068039000007511427092100000000000007511400000000000000001
126100900210604000820210604100000004691C06E3269479FAD5D6C3A5791221E0300068040000007439127102150000000000007439100000000000000001
12610090021060400082021060410000000489A1F0AA4A84AA5BA39462CEFA53C8C0300135189000010592928062160000000000010592900000000000000001
12610090021060400082021060410000000F95FF61370144BDD8C5D9940B4F823E40300135190000010494827072170000000000010494800000000000000001
12610090021060400082021060410000000BA8E2E96FA7E48718187EF26D63434260300135191000010396726082150000000000010396700000000000000001
12610090021060400082021060410000000F62C03A207254DA5BF640B7250A77B660300135192000010298727092170000000000010298700000000000000001
1261009002106040008202106041000000056C135B44990409484C661F15D1EE54B0300135193000010200625102100000000000010200600000000000000001
1261009002106040008202106041000000044E0879FF9064A09838E64AE316706C70300135194000010102524112160000000000010102500000000000000001
126100900210604000820210604100000005D082332C269426A8C70FD58435E48820300135195000010004424122170000000000010004400000000000000001
126100900210604000820210604100000007EC1CDF086C345E995BB000678E876640300135196000009906323012290000000000009906300000000000000001
126100900210604000820210604100000001275C97742C44173B52AE62D88EA718D0300068041000007366926112150000000000007366900000000000000001
12610090021060400082021060410000000C4FA73080C3D4F048D4132B2E5C336ED0300068042000007294727122130000000000007294700000000000000001
126100900210604000820210604100000006DD4AF66B2CE4699B074CDA3966211800300088229000005247309072160000000000005247300000000000000001
126100900210604000820210604100000006C7739FB0F9A47C6A6D064AB8D4C64DD0300088231000005149307092180000000000005149300000000000000001
1261009002106040008202106041000000087B865829CA144C6BB6B45F339D52C4B0300121474000009341021062140000000000009341000000000000000001
1261009002106040008202106041000000050DFDC1DB9BC4D72B466D4ABF8141D330300121475000009254520072140000000000009254500000000000000001
12610090021060400082021060410000000E377B72D34344E87B008D2B65FC29C920300007906000004333505052180000000000004333500000000000000001
12610090021060400082021060410000000F8C2134F5A8549F89FA1309B1CC270C50300007908000004253205072170000000000004253200000000000000001
126100900210604000820210604100000008F209AD77EBC47C8948AC11217DBDD580300007911000004132804102180000000000004132800000000000000001
126100900210604000820210604100000004DA67BA6ECEC41989942AE884F765C990300008584000009830603082170000000000009830600000000000000001
126100900210604000820210604100000003BE9D6890F4040A2A67EC80F477E43370300008588000009456101122130000000000009456100000000000000001
12610090021060400082021060410000000D7576577FD59424DB4CD584EE59B3B170300113216000011530917082160000000000011530900000000000000001
12610090021060400082021060410000000C6E8D6AD97FC43B2A42134F902824A210300142146000004770330072140000000000004770300000000000000001
126100900210604000820210604100000009351DD9D8E1145BEA1FF5B2610AE5D020300142151000004547427122170000000000004547400000000000000001
12610090021060400082021060410000000B227989BAC4D4BAFA7179301B4DD71A50300113211000012074922032110000000000012074900000000000000001
12610090021060400082021060410000000F4932B175905476BBF5ED32A8D5DCFAC0300113213000011857319052150000000000011857300000000000000001
126100900210604000820210604100000000D100C87E01C46B09DC711561C92E3210300113219000011204615112140000000000011204600000000000000001
1261009002106040008202106041000000098C6119679574CA683885FB8B175D0C60300113221000010987014012210000000000010987000000000000000001
126100900210604000820210604100000001841385891084FB2B2A6757E41A455A20300078398000001350831122110000000000001350800000000000000001
1261009002106040008202106041000000083AAE03FE6A54684980DC640515A3AA90300165104000000918329112170000000000000918300000000000000001
12610090021060400082021060410000000C7F3FFDC40244698B9CA561F0EAC16CC0300068427000007561229072190000000000007561200000000000000001
1261009002106040008202106041000000022AA1CEC3BC84BC2A8EC7C7E12D7A4BF0300068428000007489930082170000000000007489900000000000000001
1261009002106040008202106041000000066C34DA14F24478DB005E9397C3528880300068432000007204627122180000000000007204600000000000000001
12610090021060400082021060410000000AC8BFBF3FDC14FBC89BBF6C3673087760300075381000006317404052160000000000006317400000000000000001
1261009002106040008202106041000000035369774ABBE4BE2B2B79785C13FCA0C0300075388000005911730112120000000000005911700000000000000001
12610090021060400082021060410000000E0A8EC66014A47E89C71CF3C7434D27E0300078392000001417703082180000000000001417700000000000000001
12610090021060400082021060410000000CA36FB61CA0A4A1CA475BFDC238478CF0300007910000004173002092140000000000004173000000000000000001
126100900210604000820210604100000009D9F63C5019D431EB0D7244823D25F150300009492000018952305042100000000000018952300000000000000001
1261009002106040008202106041000000089A0BF08C6C34736ABB6E260F92981700300009493000018778505052110000000000018778500000000000000001
1261009002106040008202106041000000026442868BAAE4069AEA2C237FE1AC8400300009494000018604604062120000000000018604600000000000000001
12610090021060400082021060410000000C4BBBED4F72F4404B5E262A55D6255240300009495000018430705072160000000000018430700000000000000001
12610090021060400082021060410000000BDEAA969273E4320B1CEE9B1D6EEB26A0300009496000018256803082100000000000018256800000000000000001
126100900210604000820210604100000009558A2C04EC44FB2A5A506DB7FB365000300009497000018083002092190000000000018083000000000000000001
12610090021060400082021060410000000B7C53202475840AD948A6EEB12CA3D4F0300009498000017909104102120000000000017909100000000000000001
12610090021060400082021060410000000161CAC6C47AA4F10810257D23D61D4E00300009499000017735201112150000000000017735200000000000000001
12610090021060400082021060410000000BE768FB083134C678D9942AF6634F87C0300009500000017561301122150000000000017561300000000000000001
12610090021060400082021060410000000668B146387CE44958A73246A588B6F300300127514000002177329032150000000000002177300000000000000001
1261009002106040008202106041000000083CA48FD0DA44F89BC82D22EB90444280300127515000002157726042190000000000002157700000000000000001
1261009002106040008202106041000000018E7670955AD47A19964A0245312377D0300127516000002138126052140000000000002138100000000000000001
1261009002106040008202106041000000091079508D3404BFEBFF6CDF4660DD3D10300127517000002118525062110000000000002118500000000000000001
12610090021060400082021060410000000EFA7196BB6D941708963F5CAD0220CE20300127518000002098926072180000000000002098900000000000000001
126100900210604000820210604100000008830572CFE2E4113B5A8734660D7EFFB0300127519000002079224082160000000000002079200000000000000001
126100900210604000820210604100000005F14A81AB1DE493293182AD8BAF01D690300127520000002059623092100000000000002059600000000000000001
1261009002106040008202106041000000056CBF173F0E34FA8BDE2AA21272723260300127521000002040025102170000000000002040000000000000000001
12610090021060400082021060410000000B49DA5679B5A4582BBEECD18A776AA4B0300127522000002020422112170000000000002020400000000000000001
12610090021060400082021060410000000480E38F3883B4EE9828C4BD9FC8B6AF20300127523000002000822122130000000000002000800000000000000001
12610090021060400082021060410000000ED714821C50A4F69B6BC17426B9CFCA10300127524000001981221012250000000000001981200000000000000001
126100900210604000820210604100000007DB60FA4F0F24596AA0F31B19F346C6D0300065942000004373629042130000000000004373600000000000000001
126100900210604000820210604100000000E395D770F09495883CF53A649C111820300065950000004052627122110000000000004052600000000000000001
126100900210604000820210604100000006F625A3D88B241F79358F89438B8E4C40300098461000007670515032110000000000007670500000000000000001
12610090021060400082021060410000000CDF9F6CBA18545489D7DDB227511C2030300110368000001925917062120000000000001925900000000000000001
126100900210604000820210604100000007AD54567025E44478C1FD30E734F8E8E0300110369000001908119072130000000000001908100000000000000001
1261009002106040008202106041000000056507C6C05434566A4FC47B3B84C28510300004184000012639302082190000000000012639300000000000000001
12610090021060400082021060410000000DB82D7D8287246A68FA7634254AAE3250300040578000007846622032160000000000007846600000000000000001
126100900210604000820210604100000005077516AC5864FF591CCA2EF85387F9B0300042476000003744919082140000000000003744900000000000000001
126100900210604000820210604100000008C27A388B01843E9BC97879203EFB4840300040579000007775220042170000000000007775200000000000000001
126100900210604000820210604100000002136F1632E494C0DABD4B1089C1090550300040580000007703920052130000000000007703900000000000000001
126100900210604000820210604100000002506C730E5184C99AF882FBEE07453CB0300040581000007632621062150000000000007632600000000000000001
12610090021060400082021060410000000C582BB998072445E8776B9565BDACDBE0300040582000007561219072140000000000007561200000000000000001
12610090021060400082021060410000000A3CB77269EA147EA88273D2B5C80D7CC0300040583000007489918082100000000000007489900000000000000001
126100900210604000820210604100000002A443787FFAE42A3A1E5C12B98AD77C40300040584000007418617092120000000000007418600000000000000001
126100900210604000820210604100000007014DF031D684281A1BA47F4E5A865A00300040585000007347218102140000000000007347200000000000000001
126100900210604000820210604100000004B18B7935E804C35ACB2BF084D4BCC670300040586000007275916112120000000000007275900000000000000001
1261009002106040008202106041000000002F50D684E6644AF983099E78F1716230300040587000007204616122180000000000007204600000000000000001
12610090021060400082021060410000000732E936A635A4774BEC2DB19D35AAD760300042913000002701717122110000000000002701700000000000000001
12610090021060400082021060410000000FC0C58BEAEA24844B095F80D49CAFC140300041709000004728021042170000000000004728000000000000000001
1261009002106040008202106041000000093A8DC8557F241F79183FD69F76CACEC0300042473000003851921052120000000000003851900000000000000001
12610090021060400082021060410000000DE7D9D21F459475C98CDE9BDD3D9EE140300041284000002206822032180000000000002206800000000000000001
126100900210604000820210604100000007A919A9EF5F44DA3A7873C4231AAF9000300041285000002186721042110000000000002186700000000000000001
12610090021060400082021060410000000253C6C9A7717487190294309AD4C51600300041286000002166621052150000000000002166600000000000000001
126100900210604000820210604100000001006405867474A97B0016C26652FC0DC0300041287000002146621062150000000000002146600000000000000001
126100900210604000820210604100000000F486DBCBC274D17B585112194C60FB20300041288000002126520072130000000000002126500000000000000001
12610090021060400082021060410000000FC8477E7C89A43859F443F9996E27F500300041289000002106519082140000000000002106500000000000000001
126100900210604000820210604100000006B077E0FB97E4C738D94528EEA3D31790300041290000002086420092190000000000002086400000000000000001
1261009002106040008202106041000000002909B6A22024BF882EE5E0302DB27220300041291000002066318102140000000000002066300000000000000001
12610090021060400082021060410000000088F70AEEB4449FDA3FD6ABC61D4CEA50300041292000002046317112130000000000002046300000000000000001
1261009002106040008202106041000000071DE72DCF7F44F8F8DD51F3D8628CB9A0300041293000002026217122190000000000002026200000000000000001
12610090021060400082021060410000000E3D503A29357409E9361F58A521CF9160300059159000008185523112110000000000008185500000000000000001
12610090021060400082021060410000000EAF571A23CE44C9AA29CC0A3650625D10300059155000008506526072180000000000008506500000000000000001
126100900210604000820210604100000005C1074BD93D74AE9A3A4A27BE799E1A50300059158000008265725102120000000000008265700000000000000001
1261009002106040008202106041000000037BB47B84D5841D18A78C940841307E30300059154000008586728062120000000000008586700000000000000001
12610090021060400082021060410000000767FCC29C7764CE892383C0026B867140300058513000006723024092110000000000006723000000000000000001
126100900210604000820210604100000005500A3DD947A46F081F7E5CB169717600300060070000006865729032160000000000006865700000000000000001
126100900210604000820210604100000008EB69B261C9B49B081C26F7A5C26F66E0300060077000006428825102170000000000006428800000000000000001
126100900210604000820210604100000005A24DCF46AF1430CA2685A5C35526B6B0300058507000007110929032100000000000007110900000000000000001
12610090021060400082021060410000000153949C512164FD1889960EB797F0C6B0300058514000006658425102120000000000006658400000000000000001
126100900210604000820210604100000004A57A9147E7F4B40A24393AE019F96930300059665000005345427042110000000000005345400000000000000001
12610090021060400082021060410000000F60B2F32F15542D5A342DD8E56B594A60300059151000008827529032170000000000008827500000000000000001
126100900210604000820210604100000009973BFCE44C04AD6A0C4DD07FAAC45EF0300059160000008105223122160000000000008105200000000000000001
12610090021060400082021060410000000A6144FAC45534507A813D18BD29CCBF80300058511000006852326072120000000000006852300000000000000001
126100900210604000820210604100000002C843B74FDFB459DA4C8E7C32E4105020300059612000014222029032160000000000014222000000000000000001
12610090021060400082021060410000000B1E303B853DF46A093EE5508F13CC45E0300059613000014092727042170000000000014092700000000000000001
126100900210604000820210604100000006400D15F17AD44428520711A8C2B522D0300059614000013963427052160000000000013963400000000000000001
1261009002106040008202106041000000086909E2F595A455E855465D0231EF12A0300059615000013834128062190000000000013834100000000000000001
12610090021060400082021060410000000D67E10DFD357447EB212F1F1087E005C0300059616000013704826072130000000000013704800000000000000001
12610090021060400082021060410000000E662D497AB2443729B315904B1353C150300059617000013575525082170000000000013575500000000000000001
1261009002106040008202106041000000007C6B7A31CF5446DA55FF5EB2D91BFE50300060071000006803327042100000000000006803300000000000000001
12610090021060400082021060410000000570DA22C72784043AE2C2D5A51F087240300060078000006366423112110000000000006366400000000000000001
12610090021060400082021060410000000026BC5A336FC40738241C01E0EC4E6CE0300058508000007046327042160000000000007046300000000000000001
126100900210604000820210604100000005CBBE6FC27064F03B9CD0AB2DE5AE4730300058515000006593723112100000000000006593700000000000000001
126100900210604000820210604100000005C86162AAEEA431FA8B76AA498B00AA30300059618000013446224092150000000000013446200000000000000001
126100900210604000820210604100000001A9BE476F1B041A48F79686CA5889E7F0300059619000013316925102100000000000013316900000000000000001
12610090021060400082021060410000000F3C4A1E1EFB54F94A4050C9E7968C97D0300059620000013187623112100000000000013187600000000000000001
12610090021060400082021060410000000BF9E51BA15C04D47A2E52933818AF9570300059621000013058323122170000000000013058300000000000000001
126100900210604000820210604100000009E8515BD517D4B16AE4E9DAD9D8052090300059156000008426225082120000000000008426200000000000000001
126100900210604000820210604100000006559EFEC0BC44609A65613064F7C43DB0300059918000000525229032140000000000000525200000000000000001
126100900210604000820210604100000002CCDFBC2ED5B4D0AB21A2A897F18A0320300059919000000520327042110000000000000520300000000000000001
126100900210604000820210604100000009239785DB1134D9B89EA3666FCA82B3E0300059920000000515427052190000000000000515400000000000000001
12610090021060400082021060410000000EF67C4FF2B88462383ADC227C5D2BE9F0300059921000000510628062140000000000000510600000000000000001
12610090021060400082021060410000000A92F6B2A83BE4B85B6A203C42CB5EF9C0300058793000003432829032150000000000003432800000000000000001
12610090021060400082021060410000000FC9BE27052B44550843D5BEF081B7DBF0300058794000003401627042190000000000003401600000000000000001
12610090021060400082021060410000000D2B68F5AB79E4903AF83A4D81D86CFAF0300058795000003370427052140000000000003370400000000000000001
126100900210604000820210604100000003DF55A94968D46C2BC08C5F35A0DC01C0300058796000003339228062140000000000003339200000000000000001
12610090021060400082021060410000000732BFA81CE8E45BF869B21F88B3E6B260300058797000003308026072140000000000003308000000000000000001
1261009002106040008202106041000000054B9248BCF314C0ABC5B59A5D00C75630300058798000003276825082150000000000003276800000000000000001
12610090021060400082021060410000000B78EE80A43FA4762AC3F634C5E3D39C70300058799000003245624092150000000000003245600000000000000001
1261009002106040008202106041000000012FED11A8889471A9A400D442EE2B5C80300058800000003214425102100000000000003214400000000000000001
12610090021060400082021060410000000E2E8640A61B34410B2C63B1780D5DFC80300058801000003183223112160000000000003183200000000000000001
1261009002106040008202106041000000078BC53A18B7F4D9ABF52E2434EE609800300058802000003152023122110000000000003152000000000000000001
12610090021060400082021060410000000DF77F7DDAD5C424AB5E2ACBD7446D8500300059667000005296427052170000000000005296400000000000000001
126100900210604000820210604100000007DC980B0BA784F7AAF0CA3560F07DDF80300059668000005247328062180000000000005247300000000000000001
12610090021060400082021060410000000C48C5652112245EA8A0FF2A5EC0BF8440300059669000005198326072190000000000005198300000000000000001
12610090021060400082021060410000000A8A3B94C4C3A4F008A50FBA8C309E28F0300059670000005149325082180000000000005149300000000000000001
12610090021060400082021060410000000294F3A07C37F4D0A8241FE065B3B1EE00300059671000005100224092160000000000005100200000000000000001
12610090021060400082021060410000000175A10BAB2F24FD78CC5E1C22608949E0300059672000005051225102160000000000005051200000000000000001
12610090021060400082021060410000000C215B7D6F3E54F69A3C60586558B12570300059673000005002123112150000000000005002100000000000000001
12610090021060400082021060410000000703D417DA2064D13A7845FA20AB6B62F0300059674000004953123122120000000000004953100000000000000001
12610090021060400082021060410000000DB62F3A8B2074E28B7F6DE8439CB37A50300059157000008346024092150000000000008346000000000000000001
126100900210604000820210604100000003D8D623793B142A4BD4337C4A4232A4F0300068423000007846631032120000000000007846600000000000000001
1261009002106040008202106041000000024D0B1052F0D41EE929D81C5327C74D70300068424000007775230042120000000000007775200000000000000001
12610090021060400082021060410000000981ED00011ED4D148CA0F312B9B0D0970300068425000007703931052160000000000007703900000000000000001
12610090021060400082021060410000000B3AAF3C1DA214BB79366CAC22FC40F1C0300068426000007632629062160000000000007632600000000000000001
12610090021060400082021060410000000F3236BEF49634E4591182C562FFFFB910300094903000018952312052190000000000018952300000000000000001
126100900210604000820210604100000009F168A329B6B4EA2951AD0C8B029DA110300094906000018604612072170000000000018604600000000000000001
12610090021060400082021060410000000FD882BC8971D4E6ABBF30D8C53963C5B0300094907000018430710082180000000000018430700000000000000001
126100900210604000820210604100000008D9CF98333CF4607BA3228B5A8BD301E0300094909000018083011102110000000000018083000000000000000001
126100900210604000820210604100000001AE86631BB614136B61F78B69B0750440300094205000002728508122170000000000002728500000000000000001
126100900210604000820210604100000002D1D4C09E5504F51AAEB3B973B6648020300177424000004547430122150000000000004547400000000000000001
126100900210604000820210604100000004AB54CF002874C70887C8F7F8AA0F7650300177416000004904104052170000000000004904100000000000000001
12610090021060400082021060410000000899E9059EEDE4CBE96DA7BAA74AB697E0300177420000004725701092190000000000004725700000000000000001
12610090021060400082021060410000000E30EE6FA4D6C4E88AE93B5E732D9D07C0300113218000011313418102130000000000011313400000000000000001
126100900210604000820210604100000001245234AC2424100B98146D5139AFB4D0300078391000001431105072120000000000001431100000000000000001
12610090021060400082021060410000000AE379BBFCC0145B3BDF4CB3275EF2BB40300088272000005685610052110000000000005685600000000000000001
1261009002106040008202106041000000079857A7F69D940A789EE4E7F413A1D820300079198000001961605042160000000000001961600000000000000001
12610090021060400082021060410000000B97F790286A54688A2FEB30933CBC4880300079199000001943705052120000000000001943700000000000000001
12610090021060400082021060410000000E2AD91F83D4E4410B865471F33DF71600300079200000001925904062160000000000001925900000000000000001
126100900210604000820210604100000008657663EF16644E4B9ECDDBE31B9E5D70300079201000001908105072100000000000001908100000000000000001
12610090021060400082021060410000000669A17E97DCC4234AA848BCFBBDC37500300079202000001890203082120000000000001890200000000000000001
1261009002106040008202106041000000066C4BF63F1AC4BC8B2411A01AAF2932C0300079203000001872402092110000000000001872400000000000000001
126100900210604000820210604100000003C7D18678F1B4CF99036D3D2B786AD340300079204000001854604102150000000000001854600000000000000001
126100900210604000820210604100000001F827185E29C4391BA92D6FA3E22525B0300079205000001836701112110000000000001836700000000000000001
1261009002106040008202106041000000076E4E655133C44BA9469474918A00A5B0300079206000001818901122100000000000001818900000000000000001
126100900210604000820210604100000000909A736B5D54C10AE29F83AA2C3388F0300079207000001801131122130000000000001801100000000000000001
12610090021060400082021060410000000C28CE63236EB499293F08DD86679C1520300118978000001575720042160000000000001575700000000000000001
12610090021060400082021060410000000FC2540E5D06C464B92639705DC09BD850300118985000001473516112120000000000001473500000000000000001
12610090021060400082021060410000000B7273CB0795443FF90F333C6D643F7570300118982000001517318082100000000000001517300000000000000001
126100900210604000820210604100000001D442668AFE54DD397350999930555B20300121404000007917922032100000000000007917900000000000000001
12610090021060400082021060410000000A1B89CF18FDA406FACE5D9DF277B7FDC0300121409000007561219082110000000000007561200000000000000001
12610090021060400082021060410000000503135D138974E649559F964100EC1060300079641000007743204102180000000000007743200000000000000001
12610090021060400082021060410000000735EEC6EDC124BB0BBF38DFA8EA037750300078394000001391004102120000000000001391000000000000000001
126100900210604000820210604100000007FF1BAD1B78B4DAC96CE8E22DDF2593C0300065947000004173027092120000000000004173000000000000000001
12610090021060400082021060410000000AA55FD05F9FD4EC69C7247B77563DFF90300065948000004132826102160000000000004132800000000000000001
12610090021060400082021060410000000ABDC013EEB234B4590A4EFA8FDB6B4230300117611000003276817092130000000000003276800000000000000001
126100900210604000820210604100000009B936B705A97442CA98AC20DD72D0B1C0300099270000006837214062110000000000006837200000000000000001
1261009002106040008202106041000000093B4B8AB122D44CFB5212798C50321A70300099276000006457409122110000000000006457400000000000000001
12610090021060400082021060410000000C3278CF9B901452DA4ED1402012DC2580300099277000006394108012230000000000006394100000000000000001
12610090021060400082021060410000000DB4B1C15EBF149C590D8BA6DF5E3E5240300202041000010735615032190000000000010735600000000000000001
12610090021060400082021060410000000170781B6347A4E56895753D8772669C00300202042000010639712042180000000000010639700000000000000001
12610090021060400082021060410000000AA74671AE5A54D6DB0CFE5D3A8E7043B0300202043000010543912052180000000000010543900000000000000001
12610090021060400082021060410000000F6F28F2BEBDF474F9B85BDAD1B76A6ED0300202049000009968808112130000000000009968800000000000000001
12610090021060400082021060410000000397724F0212C4D8282F55B114B934EDE0300088274000005581309072180000000000005581300000000000000001
1261009002106040008202106041000000030C8333E560B4856969087D14CE7B9A00300088277000005424807102140000000000005424800000000000000001
126100900210604000820210604100000009B87BFE043C14646A4C376DB10CBA3AD0300088280000005268305012230000000000005268300000000000000001
126100900210604000820210604100000004CF63306B7B940C89994B9959FF1BF870300100667000010887215032100000000000010887200000000000000001
12610090021060400082021060410000000A373B817059E4BF7B9882D261C7575600300100668000010789114042140000000000010789100000000000000001
12610090021060400082021060410000000EBF90812D81742A8BB17AA7B559D252A0300091166000007155612072150000000000007155600000000000000001
12610090021060400082021060410000000B5A3A320C0814EF48498D4CF9FF0A5C90300091171000006821207122140000000000006821200000000000000001
12610090021060400082021060410000000B5105175E78F40B0A4059D570539FFE90300136013000005443529032120000000000005443500000000000000001
12610090021060400082021060410000000A4AA721DC355428BA2DA756B4E6C39500300136020000005100225102180000000000005100200000000000000001
126100900210604000820210604100000008B87EB9F4C0E41CF8861445FF9D802660300081650000005885006042140000000000005885000000000000000001
126100900210604000820210604100000002BC2BA6306284F06ADA19D35394898A50300081651000005831506052190000000000005831500000000000000001
126100900210604000820210604100000002C75E9165C5D41878A58841371F144B30300081652000005778007062180000000000005778000000000000000001
12610090021060400082021060410000000A12B471595BA49E19A8A8EF6ABF38EF60300081653000005724505072130000000000005724500000000000000001
1261009002106040008202106041000000052044F3D6BCD4499AFD4E230023106800300081654000005671004082110000000000005671000000000000000001
126100900210604000820210604100000002DD9330F738A4830A3411A70771206970300082558000019010204102130000000000019010200000000000000001
126100900210604000820210604100000009764F197863B4725B6F53E06D4E666CA0300079476000003432805042170000000000003432800000000000000001
12610090021060400082021060410000000721D31B6588F46AE8B0A7B5645EFA1860300079477000003401605052140000000000003401600000000000000001
126100900210604000820210604100000008BD88D28248C4E5EA62BB7654BBA1CF80300079478000003370404062110000000000003370400000000000000001
12610090021060400082021060410000000A000A91B440248E39E5051CD52CFD4430300079479000003339205072130000000000003339200000000000000001
12610090021060400082021060410000000E125158E69D4493A8F0C6427388D16A70300079480000003308003082150000000000003308000000000000000001
126100900210604000820210604100000007AF152F702DF4D71AB288C4788B548D90300079481000003276802092120000000000003276800000000000000001
12610090021060400082021060410000000C7C2C4BEAE034C99812499E2771235170300079482000003245604102150000000000003245600000000000000001
126100900210604000820210604100000000028A7F0D46F48138A9E118400ACFDE30300079483000003214401112170000000000003214400000000000000001
1261009002106040008202106041000000070EC5F647DAF44E1A26D5030260694D80300079484000003183201122140000000000003183200000000000000001
1261009002106040008202106041000000073E0224EC59242CBAEA91BF97BD581410300079485000003152031122160000000000003152000000000000000001
12610090021060400082021060410000000BFA71C425DFE469BABC45EA35DEDD4700300142483000008667030062100000000000008667000000000000000001
12610090021060400082021060410000000252995D7882E44199059621DE09BFE7E0300141413000003744928092110000000000003744900000000000000001
12610090021060400082021060410000000C370ED3A800C48EE95E3912C3EEBD7F20300141414000003709228102160000000000003709200000000000000001
126100900210604000820210604100000005D37F6418033423CB4FC4DC86011F5DF0300141415000003673529112170000000000003673500000000000000001
1261009002106040008202106041000000059A4410BA40D432AAC07581EAEBF66F90300141416000003637927122180000000000003637900000000000000001
12610090021060400082021060410000000D34356507C264166819D1341F5F03F2A0300141417000003602226012250000000000003602200000000000000001
126100900210604000820210604100000004BDB2169BAE94F3385BAA1B12E1E058D0300134968000005403523012260000000000005403500000000000000001
126100900210604000820210604100000006941583AEC9C4E30B6C9BFFE98E73B3D0300082552000020107006042180000000000020107000000000000000001
1261009002106040008202106041000000023C456D933D04F53B45D92D5A529B6610300082559000018827402112110000000000018827400000000000000001
1261009002106040008202106041000000002A196C2C45C47F7B98F344102EBBCC20300100669000010691014052150000000000010691000000000000000001
126100900210604000820210604100000004F7A3EB0C090459E94FBC86C95DD2E290300100670000010592914062120000000000010592900000000000000001
12610090021060400082021060410000000FA121B2A0F2B4DE0A50062D5ECD713F70300100671000010494813072160000000000010494800000000000000001
1261009002106040008202106041000000028D7B4E1833142389929044BC336E60B0300100672000010396712082140000000000010396700000000000000001
126100900210604000820210604100000003C5BD6D92E354ED8A5823CDD425D674D0300100673000010298713092150000000000010298700000000000000001
126100900210604000820210604100000009BF2AD58B79940658D741764D876D4620300100674000010200611102150000000000010200600000000000000001
12610090021060400082021060410000000891971BEC6784E89B96E525FBA0DE11A0300100675000010102510112100000000000010102500000000000000001
1261009002106040008202106041000000045102E7BBD0D488EA45BD6BBAB076EE70300100676000010004410122130000000000010004400000000000000001
12610090021060400082021060410000000249CD8A7134B47F1B43545259C057F900300100677000009906309012220000000000009906300000000000000001
12610090021060400082021060410000000A24F768015374F05B810C8C2A14147E50300068133000013241231052100000000000013241200000000000000001
12610090021060400082021060410000000E417CE72F1F14AEEA8902DCF601503E50300081655000005617503092190000000000005617500000000000000001
12610090021060400082021060410000000FFC9EB3BD9444192AEBC6E6EFBF9BA280300081656000005564004102190000000000005564000000000000000001
1261009002106040008202106041000000083151841969E429A859823C0EFD85A780300081657000005510502112100000000000005510500000000000000001
12610090021060400082021060410000000C191E3A6EFAC4F7F85BF144BBCFF52B70300081658000005457002122190000000000005457000000000000000001
126100900210604000820210604100000007C4EF6FBC6B34FCF86D9D368EE3301CE0300081659000005403501012270000000000005403500000000000000001
1261009002106040008202106041000000052CB636FB20C4F3E94E7162A6F2004C60300075383000006201505072140000000000006201500000000000000001
126100900210604000820210604100000008F29BE827EF649D9989C734728698AF60300095499000003464015032170000000000003464000000000000000001
12610090021060400082021060410000000EE081B8E09AA4433AE0289DF478F6E3D0300095500000003432812042150000000000003432800000000000000001
126100900210604000820210604100000003A3939C51D604833A9EAFF4F59B1ECB90300095501000003401612052130000000000003401600000000000000001
1261009002106040008202106041000000043903850990D4D92BFCA22A787D69B920300142490000008185527122150000000000008185500000000000000001
1261009002106040008202106041000000086E099EACB154D6A871EA0A52CB708C50300118977000001590322032120000000000001590300000000000000001
12610090021060400082021060410000000207D9835707647148C73B4DD6CEBDAA90300118984000001488118102170000000000001488100000000000000001
12610090021060400082021060410000000B5006940EFFF44DEA0B224E0241E79340300062774000008722929032160000000000008722900000000000000001
1261009002106040008202106041000000059A4B9B5A0184AE497568DE9E78512880300062775000008641428042100000000000008641400000000000000001
12610090021060400082021060410000000B214D7B77E8E42FE98CEAC4D18557D1E0300062776000008559928052170000000000008559900000000000000001
12610090021060400082021060410000000ECDA1E123F0B431988AFF8F2FA7284D10300062777000008478328062130000000000008478300000000000000001
1261009002106040008202106041000000079C7BDDE7DDE4FC9A60D3C50E78C517B0300062778000008396827072110000000000008396800000000000000001
12610090021060400082021060410000000EC77EA74F0FD4130A85BF715B9D3BA690300062779000008315326082110000000000008315300000000000000001
126100900210604000820210604100000008CA16230589E4EAF91E1E21FA0544E260300196527000009184010062130000000000009184000000000000000001
12610090021060400082021060410000000F9CC499CBAAE4AACBEBEB8EB4869B04B0300202959000000954013082150000000000000954000000000000000001
126100900210604000820210604100000003217C043676A459EBA567F13C03D71F70300200148000001431110082140000000000001431100000000000000001
126100900210604000820210604100000005533A697EE6B41D29F50A5871C66CB450300117610000003308018082170000000000003308000000000000000001
12610090021060400082021060410000000FF3AAEC738D24B9CA94FA413B96FD6B30300117612000003245618102120000000000003245600000000000000001
12610090021060400082021060410000000B6503A2A68644AE09994B60B5F83A9930300062780000008233827092120000000000008233800000000000000001
12610090021060400082021060410000000D3BD67A075E740339D89F5E81473F6050300094202000002808709092130000000000002808700000000000000001
126100900210604000820210604100000003F168DB42F4D4778811AED830FB327700300094203000002782011102190000000000002782000000000000000001
126100900210604000820210604100000002E1A116C2D8A469BB549D01AB62DB0130300078603000003644605052120000000000003644600000000000000001
12610090021060400082021060410000000B3709C1C8FDB4B74998E0D5D1C07E8E40300078604000003611104062180000000000003611100000000000000001
126100900210604000820210604100000006E10780E552540FF8E1D8753173DB9BC0300078605000003577705072160000000000003577700000000000000001
12610090021060400082021060410000000B734A9A8886E444FA79D1F1F8D5A21200300078606000003544303082160000000000003544300000000000000001
126100900210604000820210604100000009F6B29A30E7949D0B99B72CDFB28BCFF0300078607000003510802092130000000000003510800000000000000001
126100900210604000820210604100000009FA38CEB01674866A4F32AAEB687A6BC0300078608000003477404102190000000000003477400000000000000001
12610090021060400082021060410000000F4DFA467F43B4341A11EF9156B8116AE0300078609000003444001112190000000000003444000000000000000001
12610090021060400082021060410000000CF4118BACC6B474BAB447E6F9495796C0300078610000003410501122170000000000003410500000000000000001
126100900210604000820210604100000004E41616CC36D4EFE862F187BE96D14950300078611000003377131122120000000000003377100000000000000001
126100900210604000820210604100000005135A9E36CB0476F8BD6B13736AF5FB30300000230000004725726052130000000000004725700000000000000001
12610090021060400082021060410000000708EEC71E9A549B5BB2E8D43D193CE930300000170000004814929032180000000000004814900000000000000001
1261009002106040008202106041000000008C58D79277E49A38291C377A0D9FCE10300000176000004547423092130000000000004547400000000000000001
12610090021060400082021060410000000A40617E4EAE54AF6947793B93873A6880300000177000004502825102120000000000004502800000000000000001
12610090021060400082021060410000000EABAF7E91D864C3797C0B93FE78E0C9E0300000209000005051224082170000000000005051200000000000000001
12610090021060400082021060410000000980EC262BEC14B819FBC4D9766E1BE550300000231000004681225062160000000000004681200000000000000001
126100900210604000820210604100000002EE2BF1840574332B7720A4C02D7DD8F0300000205000005247326042190000000000005247300000000000000001
12610090021060400082021060410000000B728486186C144BB9E9318F10761F97C0300000208000005100226072140000000000005100200000000000000001
12610090021060400082021060410000000FDC485CD6A894E86A339803B75FA40FF0300000233000004592024082100000000000004592000000000000000001
12610090021060400082021060410000000C2A3F69476724EC3ADCC52659E4677A00300196645000007989212032170000000000007989200000000000000001
1261009002106040008202106041000000045E6E731D9F14A358D2641EDE0A7B7110300196654000007347207122160000000000007347200000000000000001
126100900210604000820210604100000001E1C357C4FB54DA5882EAB9A98D8B59E0300196656000007204605022250000000000007204600000000000000001
12610090021060400082021060410000000F0AFA5F03D5447428FCBD7A2C37E44780300000373000006143501062150000000000006143500000000000000001
12610090021060400082021060410000000A04C51BA14FE4CBBA2DA2A231199535E0300000374000006085501072170000000000006085500000000000000001
12610090021060400082021060410000000F7E3DCD8B0C34456890B2184BE8946B80300000375000006027602082180000000000006027600000000000000001
126100900210604000820210604100000003AF21BBF214448B9BE5880072732B11C0300000376000005969630082120000000000005969600000000000000001
12610090021060400082021060410000000A7333CB7B61F442D9DD3DE06C71739FC0300000377000005911729092160000000000005911700000000000000001
12610090021060400082021060410000000238ED9581D664658AF583FF2623B81D30300000206000005198326052120000000000005198300000000000000001
126100900210604000820210604100000004A51A85150D34AF4A5DC4E835F2D03A60300000210000005002123092180000000000005002100000000000000001
12610090021060400082021060410000000ACC179B6546049B48D2A1A661E5A06B00300000211000004953125102150000000000004953100000000000000001
126100900210604000820210604100000002425BD961F3C4C4D966A05D7C513CC2C0300000229000004770326042160000000000004770300000000000000001
12610090021060400082021060410000000A7DAA2F02E06424A8F52814A1B6A68BB0300200143000001498015032190000000000001498000000000000000001
12610090021060400082021060410000000112A1DA0C2C341F6B331005A74B0939D0300200150000001404311102180000000000001404300000000000000001
12610090021060400082021060410000000DF3607F0D0CF4684B10B559E040E97930300200152000001377608122180000000000001377600000000000000001
126100900210604000820210604100000003700560EA5C64700A91E0E5D0CAD72AD0300177507000002755230112140000000000002755200000000000000001
12610090021060400082021060410000000BD1B75FB98AB488BBF80643B2ADB588D0300177541000005835904052180000000000005835900000000000000001
12610090021060400082021060410000000CB5A420633E74023B790474C99A88E420300177545000005623701092100000000000005623700000000000000001
12610090021060400082021060410000000C8EE0595F4F744E4A170959974A234250300177550000005358429012260000000000005358400000000000000001
1261009002106040008202106041000000053F9D99885AA4C539876F9BEC4EF78F60300198261000004993212032160000000000004993200000000000000001
12610090021060400082021060410000000CAE0D8EA137B45FFA42A530CCE79BBEB0300198262000004948712042110000000000004948700000000000000001
12610090021060400082021060410000000ED729BC526E4401C932C0E305B834D3D0300198263000004904111052170000000000004904100000000000000001
12610090021060400082021060410000000A18EDFC5BD29411D82BD35D6095A94D40300196647000007846611052120000000000007846600000000000000001
12610090021060400082021060410000000C1618951A95B483AB5E585B002BC8EFE0300196648000007775210062150000000000007775200000000000000001
12610090021060400082021060410000000AD2D027F6E4548B9ABEC06B1016C99280300177499000002969205042100000000000002969200000000000000001
1261009002106040008202106041000000084322790FCB242D88F9D621958724D2D0300177500000002942504052110000000000002942500000000000000001
12610090021060400082021060410000000888B207DC931425A84AB881296AC26E30300177501000002915703062190000000000002915700000000000000001
1261009002106040008202106041000000073B71D1B70EA43BC974BEE5BA3ADE6050300177502000002889005072120000000000002889000000000000000001
1261009002106040008202106041000000081F078D2829041F1AC7F72031AE22F250300177503000002862202082130000000000002862200000000000000001
12610090021060400082021060410000000FEF7CE1C778E445381F7FC9B24BB8CAA0300177504000002835501092130000000000002835500000000000000001
12610090021060400082021060410000000092BA662A83D441CAD3EE1A27C53FD7E0300177505000002808701102160000000000002808700000000000000001
12610090021060400082021060410000000E8A6A0D9981648B6AB6EFF178CC1D11D0300177506000002782001112130000000000002782000000000000000001
126100900210604000820210604100000008E6CCE8A3F7142699B05C36B34B939800300177547000005517601112170000000000005517600000000000000001
126100900210604000820210604100000009B0B5D185D3541B78FF17BACEE9CBB8E0300177417000004859503062190000000000004859500000000000000001
126100900210604000820210604100000009720F0664EEE490CBF3079DE4EA09BAF0300177418000004814905072160000000000004814900000000000000001
126100900210604000820210604100000009CDCBB012D704F848C8D3859DD30F9D90300177419000004770302082130000000000004770300000000000000001
12610090021060400082021060410000000FDD8E82983294940A99015C0244E86060300202960000000945013092120000000000000945000000000000000001
12610090021060400082021060410000000AB8EC06B14944E95B75F5DEC0BDD3A7A0300200145000001471212052160000000000001471200000000000000001
12610090021060400082021060410000000078B2B79F21B40D0B2ACA373B7CA23B20300198264000004859510062100000000000004859500000000000000001
12610090021060400082021060410000000F30455ED186C4DE9B76AC216971791F80300198265000004814912072180000000000004814900000000000000001
12610090021060400082021060410000000F6F46F6B9F444062ADF7C7B262067CDB0300202046000010256310082150000000000010256300000000000000001
126100900210604000820210604100000006DC4DE572F64495FA32058DB7DAC532B0300202047000010160509092160000000000010160500000000000000001
12610090021060400082021060410000000673E20F278C341E5AD146A73B3844DEA0300202050000009872908122190000000000009872900000000000000001
126100900210604000820210604100000003E759699C64A4DDBAB695FFC33D3F11E0300202051000009777107012250000000000009777100000000000000001
126100900210604000820210604100000001DDD563B90DA44CA99B02FE20C01F93D0300182268000001484605042100000000000001484600000000000000001
12610090021060400082021060410000000279CEC2A7EAF471CA1B535A194C381520300182269000001471205052110000000000001471200000000000000001
12610090021060400082021060410000000D7E6B5FC97694632BB0CC6E1F357ABAE0300182270000001457804062100000000000001457800000000000000001
12610090021060400082021060410000000BC3CAEFD531847B0BADDF1C5AEFC91F80300182271000001444505072190000000000001444500000000000000001
12610090021060400082021060410000000854581633EAD447A857BB0CFB87199730300182272000001431103082160000000000001431100000000000000001
126100900210604000820210604100000007DC22493AC374179A3357EC2822FFC5C0300182273000001417702092170000000000001417700000000000000001
1261009002106040008202106041000000075DC859AA33B49048B738F09BBC351CB0300182274000001404304102130000000000001404300000000000000001
1261009002106040008202106041000000063A4BA1BFE2C4326B52A660650FC829C0300182275000001391001112170000000000001391000000000000000001
1261009002106040008202106041000000015E5F034FCE348A1B96587237F2BD4980300182276000001377601122120000000000001377600000000000000001
12610090021060400082021060410000000E613E58009A24B8EA05B67E721F98D260300182277000001364231122120000000000001364200000000000000001
126100900210604000820210604100000005F26A51EBC9D4638B0532A486E90449A0300182278000001350830012270000000000001350800000000000000001
12610090021060400082021060410000000C06C965CB4484419BBC4066C006743530300200788000001471212052160000000000001471200000000000000001
126100900210604000820210604100000005B9DF51F669F4151B2B48AADD6B038770300200795000001377608122130000000000001377600000000000000001
12610090021060400082021060410000000743ED606C2BA4B1281D9BDDABCA07FCA0300088271000005737812042100000000000005737800000000000000001
1261009002106040008202106041000000056C45EDE78C64EE3BBBD65DCDE73CE390300121471000009600522032110000000000009600500000000000000001
126100900210604000820210604100000002ECD2D4734814DE9BE79CA5A52413A720300121472000009514021042190000000000009514000000000000000001
1261009002106040008202106041000000066D7FC6E99D44DFFA8391E9B7C485D440300121473000009427521052120000000000009427500000000000000001
12610090021060400082021060410000000F431ABD0611F43218795C3737A29E76A0300121611000002755217112120000000000002755200000000000000001
12610090021060400082021060410000000679F07C4677C4AD8B4FC55617D20AA6C0300121407000007703921062110000000000007703900000000000000001
126100900210604000820210604100000006FF15A7DED2441A5AEDD266BA6EF4D5A0300121413000007275917122160000000000007275900000000000000001
1261009002106040008202106041000000094ABEDD9B00B45E19A767D7C56D7200A0300165102000000936129092170000000000000936100000000000000001
12610090021060400082021060410000000D1AF3977F42C4479AB15B8DC739CEE360300071343000013486405042180000000000013486400000000000000001
1261009002106040008202106041000000011FE4D03B0A14F83BF7B2B102ADE02D40300094196000002969215032130000000000002969200000000000000001
12610090021060400082021060410000000117C38B60DD044FE809D0EB7241ECBFF0300136019000005149327092100000000000005149300000000000000001
126100900210604000820210604100000001FAB37859D7B43EBA452637038A41EF90300136022000005002124122140000000000005002100000000000000001
126100900210604000820210604100000008156870DBF1B489185BAD55D537059A30300075385000006085501092180000000000006085500000000000000001
126100900210604000820210604100000001C2503B95A9C406E945F330647701ED50300141411000003780530082110000000000003780500000000000000001
126100900210604000820210604100000003548F19780994D2F98839BD616E490BC0300095502000003370411062130000000000003370400000000000000001
12610090021060400082021060410000000555A2D1537C544D7B831135FE58E2AB10300095506000003245611102140000000000003245600000000000000001
126100900210604000820210604100000003201121A4DC34FBFBDA475591FC9A72A0300095507000003214408112190000000000003214400000000000000001
126100900210604000820210604100000009452014EB11D43948F455DF7ECEBF28D0300142481000008827503052120000000000008827500000000000000001
1261009002106040008202106041000000079F8621373C240A1B6CBE1C58D485FBA0300142484000008586730072150000000000008586700000000000000001
126100900210604000820210604100000001457E6C4315840E5BFAEC5D98EDAD6280300142486000008426228092100000000000008426200000000000000001
12610090021060400082021060410000000D59C6248B4A14AC9A05AC69D883465D10300142487000008346028102140000000000008346000000000000000001
12610090021060400082021060410000000607AE65C78574A53A0B2DBD7BD5422150300065944000004293328062150000000000004293300000000000000001
12610090021060400082021060410000000C2ED90EB612942548985FEE6E4E86DF70300065946000004213127082180000000000004213100000000000000001
12610090021060400082021060410000000DFCCD669E30643CCBD1BD62C06A3A5BB0300165096000000989602042170000000000000989600000000000000001
126100900210604000820210604100000003A602685A16A42F2BFD4B34CE286BB700300113217000011422216092170000000000011422200000000000000001
12610090021060400082021060410000000B40232A34F7C423F97749E0D3BF077FC0300165105000000909428122110000000000000909400000000000000001
126100900210604000820210604100000006183E6C633D54A25B263FC52473ECE000300088227000005345410052140000000000005345400000000000000001
12610090021060400082021060410000000EC6825320AB14C00BC7D244B7B0F635E0300117613000003214416112100000000000003214400000000000000001
126100900210604000820210604100000004092954B282C4E7D81D0B677896D62690300117614000003183216122170000000000003183200000000000000001
126100900210604000820210604100000009A265544FEE04E0096364972329A87D50300117615000003152015012250000000000003152000000000000000001
126100900210604000820210604100000004F10F6A861D24125AD04A4B0E5072CEE0300102339000009897415032120000000000009897400000000000000001
1261009002106040008202106041000000010C2CD80833141AD9B456F785397B47C0300102340000009808214042130000000000009808200000000000000001
12610090021060400082021060410000000B780A14A34004028A04FAA15DA6E313E0300102341000009719014052140000000000009719000000000000000001
12610090021060400082021060410000000B43BA42C3D844091808CBD7D434C556A0300102342000009629914062120000000000009629900000000000000001
126100900210604000820210604100000004336B8E313874D86853B630B31B7D5E70300091165000007222510062140000000000007222500000000000000001
126100900210604000820210604100000009365D379E2164026BC8CDFDF754FF6DE0300102343000009540713072170000000000009540700000000000000001
12610090021060400082021060410000000453777C4103E4BF6A15BD2A5FA784A120300102344000009451512082120000000000009451500000000000000001
12610090021060400082021060410000000C0CEA4F290314079AA418DF77DB89D140300102345000009362413092160000000000009362400000000000000001
126100900210604000820210604100000005848D4E7ACCB427293F4DA5FD1BD51BF0300102346000009273211102140000000000009273200000000000000001
12610090021060400082021060410000000FE5260B18E1C46A180777244505962DD0300102347000009184010112140000000000009184000000000000000001
1261009002106040008202106041000000044A9689F6BED4835979CE2AB5007C1A30300102348000009094910122150000000000009094900000000000000001
126100900210604000820210604100000000309FEAB3E1A449F94E3ED0C07DA7BA30300102349000009005709012280000000000009005700000000000000001
12610090021060400082021060410000000A02A9488A7B54E72A92030E971FEA5460300068137000012750827092190000000000012750800000000000000001
126100900210604000820210604100000006838BACA2EE846EAACBE3061528BC48C0300068142000012383027122180000000000012383000000000000000001
126100900210604000820210604100000003412BAA7A10A427F8F4C216F1FCE6F200300121408000007632620072110000000000007632600000000000000001
12610090021060400082021060410000000A3F9DE6E0BAA4FD481E23D3AAA26EF660300079637000008041004062130000000000008041000000000000000001
12610090021060400082021060410000000170B480DCAFD4D34A4F3E55621CD465E0300079644000007519831122160000000000007519800000000000000001
126100900210604000820210604100000008317EB26A69942B4BE9B30456EDAA77B0300095504000003308010082100000000000003308000000000000000001
12610090021060400082021060410000000B0EEA26281F54B009D50792E6ACDDB5D0300095505000003276809092190000000000003276800000000000000001
12610090021060400082021060410000000CD206F1E43ED432996015F98E989A9080300095509000003152007012200000000000003152000000000000000001
126100900210604000820210604100000005B81581154F046AB9525B9068E5D00680300142143000004904103052130000000000004904100000000000000001
12610090021060400082021060410000000A5442D60783741718EA5853CB0DB8D890300142148000004681228092110000000000004681200000000000000001
12610090021060400082021060410000000DC51C8B6E1D442418A1D27769C642BEC0300418434000018604631032190000000000018604600000000000000001
1261009002106040008202106041000000058D20082C8A749618C2C374695DE4A070300418435000018430730042160000000000018430700000000000000001
12610090021060400082021060410000000B90693B2CBF94748AEE41BDE225B4ABC0300418436000018256831052150000000000018256800000000000000001
12610090021060400082021060410000000DE821156CFF0468D8657D586FE4CAB760300200786000001498015032150000000000001498000000000000000001
126100900210604000820210604100000003A1920346B6442AEBD2FAFFC79B9891B0300194122000017574709072190000000000017574700000000000000001
1261009002106040008202106041000000082B8BEB398BF4E36B04B50DCF65F40EE0300194126000017086507102100000000000017086500000000000000001
12610090021060400082021060410000000C9C28EE3160B42109691E9A950317F180300200790000001444512072160000000000001444500000000000000001
12610090021060400082021060410000000160BBA41E077486EABEF4AB3C8BB72290300200146000001457811062180000000000001457800000000000000001
12610090021060400082021060410000000A5D6B01AE243448E8963A9CBA92C54AF0300185640000001979408042140000000000001979400000000000000001
126100900210604000820210604100000009788364BA3A84510BEB80AC2FE641D3C0300185641000001961610052100000000000001961600000000000000001
126100900210604000820210604100000000EEBD981CAEA4ED99084BFE17BC291520300185642000001943707062180000000000001943700000000000000001
12610090021060400082021060410000000A3CFC9FF7AAC4DD0B65C74C35246A25D0300185643000001925907072170000000000001925900000000000000001
126100900210604000820210604100000006CBE4344F8E644FA9C4C87E58B1F45F90300185644000001908106082110000000000001908100000000000000001
12610090021060400082021060410000000144463323F2B4294B499F59104D9BD360300185645000001890206092100000000000001890200000000000000001
12610090021060400082021060410000000097A0ECE787B414D9673D727066204A70300185646000001872405102190000000000001872400000000000000001
126100900210604000820210604100000004033D58163824EC8ADA4C825071380520300185647000001854604112160000000000001854600000000000000001
1261009002106040008202106041000000087394AE99FAE47C896F0B252D8E975EB0300185648000001836706122160000000000001836700000000000000001
126100900210604000820210604100000008F3B103D71FC460486C3E8CFD6CB3B360300185649000001818903012240000000000001818900000000000000001
126100900210604000820210604100000007B895C2B37C3465896CDA0E10FA4FA620300185650000001801102022280000000000001801100000000000000001
12610090021060400082021060410000000D6866505F3D9403894B0A861601FFF380300013503000001818915102120000000000001818900000000000000001
126100900210604000820210604100000007D5D4CE4E6F94BA8BB9EF1E7F6F4C12B0300008858000004636616082140000000000004636600000000000000001
1261009002106040008202106041000000004A9BF901B6248798DC8FE466EE3A1BD0300009957000002928317032130000000000002928300000000000000001
12610090021060400082021060410000000F967A1F8D03F4087BC7CA9490B4EFA030300009958000002900116042160000000000002900100000000000000001
126100900210604000820210604100000002A0D3342A39149438A58F39BC220B96D0300013500000001872419072130000000000001872400000000000000001
126100900210604000820210604100000008F414544DD394F16A0B204E82D10BBAD0300009960000002843815062120000000000002843800000000000000001
12610090021060400082021060410000000BCA3443DD0294F448EECBCF854877BDF0300005651000005345416032110000000000005345400000000000000001
126100900210604000820210604100000008F0C3C0B0BAF497EA49F18C6482181530300005654000005198314062140000000000005198300000000000000001
12610090021060400082021060410000000F77F13BC128C4024AF435069BE02C8790300005657000005051213092190000000000005051200000000000000001
126100900210604000820210604100000003446F204B7D24680A2B7154133290AFA0300008857000004681215072180000000000004681200000000000000001
126100900210604000820210604100000008A2E1F2042E3431D9A4407F5A7C5D00B0300013498000001908118052150000000000001908100000000000000001
126100900210604000820210604100000005EBDE845F55B44779FDB0C8BD0092F2A0300013499000001890217062130000000000001890200000000000000001
12610090021060400082021060410000000CB19EDC2D3174E6C968F556555C86C620300005655000005149314072180000000000005149300000000000000001
126100900210604000820210604100000008ED7C38E25E949E3AE71C6B8D7A1B9320300005656000005100213082120000000000005100200000000000000001
12610090021060400082021060410000000045CCB42DCC24E5886727CDB10F712E10300005658000005002112102140000000000005002100000000000000001
12610090021060400082021060410000000528854B864EF4EE289121F8EA320B4690300009959000002872017052180000000000002872000000000000000001
12610090021060400082021060410000000B8760D2A5A604947931B5C2AF68A34360300010828000004814919042190000000000004814900000000000000001
12610090021060400082021060410000000136190368A6E441E8EB7460C30EA014D0300010830000004725716062100000000000004725700000000000000001
12610090021060400082021060410000000CAD80EB65AD048629AF1AFB8F03182C00300010831000004681216072120000000000004681200000000000000001
12610090021060400082021060410000000A2DA029957A84ACE865FE275B99E70FC0300010832000004636616082140000000000004636600000000000000001
126100900210604000820210604100000004C6B81594CD14BEA8538B76513A78E300300010833000004592014092100000000000004592000000000000000001
12610090021060400082021060410000000EBE17E15BDA042ADA795D6AD0D7E59FC0300010834000004547414102170000000000004547400000000000000001
12610090021060400082021060410000000029EEB88E1B54DADBBE36EE9475708630300010835000004502815112130000000000004502800000000000000001
126100900210604000820210604100000000C0972AB6EA34123878A3FB93172B2420300485095000002015109112190000000000002015100000000000000001
1261009002106040008202106041000000095DB1A7077F34021A1261F456E5B72080300485104000001854606082290000000000001854600000000000000001
1261009002106040008202106041000000022F10D559BB54E63A918B403848939AE0300485106000001818905102240000000000001818900000000000000001
1261009002106040008202106041000000015FA733A3A864CA3AE1CA036D61D99690300015276000008033806072150000000000008033800000000000000001
12610090021060400082021060410000000CE3E42C148BF4F0F91CD06F2F619FD1F0300019530000011342008072180000000000011342000000000000000001
12610090021060400082021060410000000756573FBB35D4236B2BF33F7CF4583730300019531000011235009082100000000000011235000000000000000001
126100900210604000820210604100000005622EB391FA64B5EA6EDC9438ED7D4890300019527000011663009042100000000000011663000000000000000001
126100900210604000820210604100000009C051D5C78A84540B16AA7D22113AD800300019534000010914005112180000000000010914000000000000000001
12610090021060400082021060410000000A364140EA97C4BC18335A9C19FA5A2B10300013084000011449007062100000000000011449000000000000000001
1261009002106040008202106041000000055D16C9B53DB4D2F97548BBD5E43F3D40300014139000002808705082100000000000002808700000000000000001
12610090021060400082021060410000000843DEA458B4B4338A9FE3FAAE3B7F8590300014137000002862207062150000000000002862200000000000000001
12610090021060400082021060410000000C1CA5DCA282A437D93860D73F8D40CC40300018353000005564010052110000000000005564000000000000000001
126100900210604000820210604100000001782D33E6795487C8D4551ACD6D59F0C0300014138000002835506072180000000000002835500000000000000001
126100900210604000820210604100000006AE800895FA94D0594589E4BDA5ECE4A0300019823000000980710032120000000000000980700000000000000001
12610090021060400082021060410000000704A81B15E7440689396D42ACE32C9350300019826000000954008062100000000000000954000000000000000001
12610090021060400082021060410000000EA65341AC285453F8031B61A416745A20300019832000000900506122150000000000000900500000000000000001
1261009002106040008202106041000000049A48DD9904C4470B88E6D0273C3331F0300020020000001854606092170000000000001854600000000000000001
12610090021060400082021060410000000BB763513B2E8441B9DC1115D067EE4960300019526000011770010032160000000000011770000000000000000001
12610090021060400082021060410000000BEF3A88A1E974B9DA8C0392928D7B04B0300019533000011021006102170000000000011021000000000000000001
126100900210604000820210604100000008ACCDDF138B9488CAC5CA23F2482FA9E0300014141000002755204102100000000000002755200000000000000001
12610090021060400082021060410000000ABB0BB50670A46A3AB211FBCED3E5C5D0300014143000002701703122180000000000002701700000000000000001
12610090021060400082021060410000000C0C0DD76F0794AFEA6FE57BDED8D84DD0300018354000005510507062120000000000005510500000000000000001
12610090021060400082021060410000000AF6E066D08894299B3EE776D267AF48F0300013089000010914002112130000000000010914000000000000000001
12610090021060400082021060410000000F1EE05A5032F4D6BAC871E67243247CC0300015274000008185407052120000000000008185400000000000000001
12610090021060400082021060410000000A7E418E1D9D3445999070552697326D00300015281000007654803122160000000000007654800000000000000001
126100900210604000820210604100000009F350DB294B94F71BF08207126B583FA0300014136000002889007052110000000000002889000000000000000001
12610090021060400082021060410000000E1B7D30C82E1451E95412A486BE8E0160300019828000000936109082160000000000000936100000000000000001
1261009002106040008202106041000000059F65FFD6AB4405AA2BE089C4707CE310300019529000011449008062180000000000011449000000000000000001
12610090021060400082021060410000000DD183C10A2684B909565DC20AEDDDAB30300019825000000962910052130000000000000962900000000000000001
1261009002106040008202106041000000017AEF293EFE749AF914CDFF033F64FA40300013082000011663006042150000000000011663000000000000000001
12610090021060400082021060410000000BD6C369CD7884A62A2DC9511C32420CF0300013086000011235004082170000000000011235000000000000000001
1261009002106040008202106041000000026A012F0089A4564BB132ABA568A785C0300485089000002122113052190000000000002122100000000000000001
1261009002106040008202106041000000022EDBB40D95B40ECB1327F69ECAA71CB0300485091000002086412072160000000000002086400000000000000001
1261009002106040008202106041000000031D073239A084C02B9C8747F08CB1D5C0300485102000001890207062250000000000001890200000000000000001
12610090021060400082021060410000000C8DCD4BC7A024C6091221F0633C072750300159745000001979402042120000000000001979400000000000000001
126100900210604000820210604100000009916BF77A800477C9B38820403EBEA0B0300159746000001961603052110000000000001961600000000000000001
12610090021060400082021060410000000484FAF2073904CA892E3D1FA803725A00300159747000001943701062130000000000001943700000000000000001
1261009002106040008202106041000000055FD6992966845CF87A36BCDD5AA3D460300159750000001890230082160000000000001890200000000000000001
1261009002106040008202106041000000058EA186801274DB2BACF01959040033C0300068136000012873430082190000000000012873400000000000000001
12610090021060400082021060410000000BB1B1E23A4AA41A4B5FB2779BD0B47570300075539000001961605042180000000000001961600000000000000001
12610090021060400082021060410000000B13260DF642F406A9EDCBF2F6986FD5F0300075540000001943704052100000000000001943700000000000000001
12610090021060400082021060410000000488207DA2E8545E68B5A46D4ED8293700300075541000001925903062130000000000001925900000000000000001
1261009002106040008202106041000000057B7B9B0444F46CAA2F08817549E6B610300075542000001908105072130000000000001908100000000000000001
126100900210604000820210604100000004E9EE1E260994397B419E215A8CF40740300075543000001890202082110000000000001890200000000000000001
12610090021060400082021060410000000BA9334DE8FD545EDB7CA00D29828B91B0300075544000001872401092130000000000001872400000000000000001
126100900210604000820210604100000004312541266F44977961D774AABE55CA10300088226000005394512042100000000000005394500000000000000001
12610090021060400082021060410000000BF0B4435DDE1496E8BD5387EBAFDCAE30300079635000008189905042140000000000008189900000000000000001
1261009002106040008202106041000000089AA07C8F6A6485392D39FD379C8112F0300079642000007668701112110000000000007668700000000000000001
12610090021060400082021060410000000BC7967BE07304CD09561E2AC3A4979650300075545000001854601102170000000000001854600000000000000001
126100900210604000820210604100000005B355C0680B04916AB65BEAB351259B20300075546000001836701112120000000000001836700000000000000001
12610090021060400082021060410000000189882BC4CB640099EFBA671B81E98460300075547000001818930112100000000000001818900000000000000001
1261009002106040008202106041000000003B9252649434BB8B6D47E743D98673E0300075548000001801130122180000000000001801100000000000000001
12610090021060400082021060410000000A121B5195D584512839DFA23D5D87F420300134958000005938529032100000000000005938500000000000000001
1261009002106040008202106041000000048FC4E2B7C48446181C1447FE73403910300134961000005778028062150000000000005778000000000000000001
12610090021060400082021060410000000E311C17166284B999F2DB80961F88A0B0300134962000005724527072190000000000005724500000000000000001
1261009002106040008202106041000000027BEC95694E2460BB208CBEDE236772E0300134963000005671026082160000000000005671000000000000000001
12610090021060400082021060410000000005EF5FB39B84791903B8EBDDE07CC520300099272000006710611082170000000000006710600000000000000001
12610090021060400082021060410000000453AF250D00843B4B5DAE664790B8B250300418437000018083029062100000000000018083000000000000000001
1261009002106040008202106041000000080580BDEFCF2465AA28B116FF88380540300418438000017909129072140000000000017909100000000000000001
126100900210604000820210604100000003B1FC3AAA44E42BFA37EC0FD6C6DE5D00300418439000017735230082130000000000017735200000000000000001
126100900210604000820210604100000001BBC3030C47746CF97FBF43D66E169480300418440000017561327092140000000000017561300000000000000001
12610090021060400082021060410000000FEAA7E58C9ED49D1AC0044B0D7075E680300142950000008660228092160000000000008660200000000000000001
12610090021060400082021060410000000DF53C3DDA99747B8B4A1A17FEF98BFC40300142951000008577828102150000000000008577800000000000000001
12610090021060400082021060410000000C620373A9B1341DB94313D342F986F010300136018000005198326082170000000000005198300000000000000001
12610090021060400082021060410000000C34E01B0D0FC411A871A1187A069D9B50300091168000007021808092120000000000007021800000000000000001
12610090021060400082021060410000000CD02007B397949EA9FFF31E2860BAE1B0300091170000006888108112120000000000006888100000000000000001
1261009002106040008202106041000000023DED7E2CFF84E679E0E7FAFCC2D194C0300093002000000909407122120000000000000909400000000000000001
1261009002106040008202106041000000080B915D0BFF9431D98F878B6643E755A0300110366000001961619042100000000000001961600000000000000001
1261009002106040008202106041000000008E6A65E166144B1AA219D0A1F9664EF0300110367000001943718052160000000000001943700000000000000001
126100900210604000820210604100000008CA5F249A9E04C0DB8A01218F3B8D2F60300110370000001890216082140000000000001890200000000000000001
126100900210604000820210604100000003CFFFEFB3A9C4178A84261FFA5D4677F0300088276000005477007092110000000000005477000000000000000001
1261009002106040008202106041000000065080F0570074E37AF74B273A0F4E2370300088279000005320506122130000000000005320500000000000000001
12610090021060400082021060410000000930AC9D2D323453FBD4CBEE6CE191A340300092993000000989612032100000000000000989600000000000000001
12610090021060400082021060410000000673E8F065BAA43D5BA93322A1E9D09C50300093003000000900506012240000000000000900500000000000000001
12610090021060400082021060410000000FE4E7EDF4FFB4EA1AFA7A8CC910510B70300082555000019558605072130000000000019558600000000000000001
12610090021060400082021060410000000D85AE0D1E2B34834803F6D31FCE6449E0300142145000004814930062130000000000004814900000000000000001
1261009002106040008202106041000000081DC00D6F220418E95A27D86D6D0255D0300142150000004592029112150000000000004592000000000000000001
12610090021060400082021060410000000B128415C21A7441EA28590C977CEA69D0300485090000002104214062190000000000002104200000000000000001
12610090021060400082021060410000000951D0ED9EA7C40F89C4DFB0BAD5871E60300121271000010392322032160000000000010392300000000000000001
12610090021060400082021060410000000132275C93A7C413E9E7D4B56F27879680300121272000010298721042100000000000010298700000000000000001
12610090021060400082021060410000000DEC78989C0604E7DA0892C8A26793A930300121273000010205121052190000000000010205100000000000000001
12610090021060400082021060410000000677473E0A60843E2902F7E8455E756490300121274000010111521062160000000000010111500000000000000001
12610090021060400082021060410000000F333A3CEBAD3450CB1F73DA450D80BB90300121275000010017820072160000000000010017800000000000000001
12610090021060400082021060410000000CD2155ABB15548F79D1253DC516790E50300121276000009924219082130000000000009924200000000000000001
1261009002106040008202106041000000006318BAAA89843D39C64A171FB8BED550300121277000009830620092190000000000009830600000000000000001
126100900210604000820210604100000002CC3109BB77743B582DEA741A10CF9AB0300121278000009737018102150000000000009737000000000000000001
12610090021060400082021060410000000A4190E5BEC8D4CA6801CFE7774228F3F0300121279000009643317112130000000000009643300000000000000001
1261009002106040008202106041000000024BB7B9DFF52432AA51C6BE94096B9400300121280000009549717122190000000000009549700000000000000001
126100900210604000820210604100000005FBF3F7CC8474D788DDC99B9C707E15D0300121281000009456116012230000000000009456100000000000000001
126100900210604000820210604100000007DEB6AD2EB7B437194C2F0B54B9B058C0300063795000020597426082190000000000020597400000000000000001
12610090021060400082021060410000000A4EAEA8D80B445C4BEE5FD1FC35AA1D40300063796000020401227092180000000000020401200000000000000001
1261009002106040008202106041000000088CAA72C54D74040AD56643BE987FB5C0300063797000020205025102160000000000020205000000000000000001
12610090021060400082021060410000000A598BA6215CF47EBBE328E0FCA749F040300063798000020008924112110000000000020008900000000000000001
1261009002106040008202106041000000087CFC1C07A084C8E8F518E150F7EEBDD0300063799000019812724122100000000000019812700000000000000001
1261009002106040008202106041000000081C92D8BDEE349A4AE8A688DBAFC7DE80300078393000001404302092130000000000001404300000000000000001
12610090021060400082021060410000000052C1F5C15C642D2A5060FF9545D1E500300071344000013363803052110000000000013363800000000000000001
12610090021060400082021060410000000D3E7F5594525458A9BC8F8D05FD6E60A0300071345000013241202062100000000000013241200000000000000001
12610090021060400082021060410000000881DB8F40C1848A2B74D39D202343F7B0300071346000013118602072190000000000013118600000000000000001
12610090021060400082021060410000000074595035A05480784B26D9D928A97040300071347000012996002082140000000000012996000000000000000001
1261009002106040008202106041000000012942E4ABD234FAFAEB412F96FA16AD90300071349000012750830092190000000000012750800000000000000001
126100900210604000820210604100000009C846A22F077449FBF0DB5CC41AB67010300071350000012628201112110000000000012628200000000000000001
12610090021060400082021060410000000B04DBC74FE1A470089C9C0C41BDE14500300071351000012505629112170000000000012505600000000000000001
12610090021060400082021060410000000D94769329DB44A30801C345F55B778770300122617000002289820072100000000000002289800000000000000001
12610090021060400082021060410000000C2F6C528F1F04D2CB3110F5C0D64A0700300122618000002268419082160000000000002268400000000000000001
126100900210604000820210604100000001D9F5A4DA5484B3782FAE91B4E2F74DE0300122619000002247020092170000000000002247000000000000000001
126100900210604000820210604100000007BFECF598A0147859099AAB71EBDB5700300122620000002225618102160000000000002225600000000000000001
126100900210604000820210604100000000ED03F95E41B4173BC5A9CB35ECED6ED0300122621000002204217112170000000000002204200000000000000001
12610090021060400082021060410000000307C2ED83B334157BE411F835DCC0F270300122622000002182817122150000000000002182800000000000000001
12610090021060400082021060410000000466E6F6CA18845B49D103A03D47644E20300122623000002161416012210000000000002161400000000000000001
126100900210604000820210604100000001E0087A8FAEA44F39E76EC78493D6E080300063790000021578229032110000000000021578200000000000000001
1261009002106040008202106041000000057955DF16C124DEEBE3B4D60BA1C25EA0300063791000021382028042130000000000021382000000000000000001
1261009002106040008202106041000000031BF4C20AB3A4023AD1E0F004F8F3FE90300063792000021185928052190000000000021185900000000000000001
126100900210604000820210604100000002671686FCE574CED9F64B3B4B32B38D30300063793000020989728062130000000000020989700000000000000001
12610090021060400082021060410000000AD3F7EF3CFE449D9B1400889F83C02010300063794000020793527072100000000000020793500000000000000001
12610090021060400082021060410000000B97B61FFAE264303AEDB042B1954E1ED0300134959000005885028042110000000000005885000000000000000001
12610090021060400082021060410000000C9E5D535507B4A26AEC9A1D42D004E860300134960000005831528052190000000000005831500000000000000001
12610090021060400082021060410000000463AE1EF397A456E85D01B3AF82B8B7E0300134964000005617527092130000000000005617500000000000000001
12610090021060400082021060410000000A6F2BE80A42549C99C96854B88BDF0990300134965000005564025102160000000000005564000000000000000001
12610090021060400082021060410000000408DFD8E16E742B0A10D6B65FAC06A0F0300134966000005510524112120000000000005510500000000000000001
1261009002106040008202106041000000017E556B47D9443D8821C74480DB1B2960300134967000005457024122110000000000005457000000000000000001
12610090021060400082021060410000000E7AD71BDFAAF4515AF1867B54BDAA0B20300142949000008742730082140000000000008742700000000000000001
12610090021060400082021060410000000E9966EF48CD34A0EA3B3B7D0A8D75F350300075380000006375305042160000000000006375300000000000000001
12610090021060400082021060410000000C4D8ED219891484E9C2E0CC80C3D2DFC0300075387000005969601112150000000000005969600000000000000001
126100900210604000820210604100000001EF6F199059F458E905973358CFC50E70300135186000010887229032140000000000010887200000000000000001
126100900210604000820210604100000003E87FE3F14BC40ACBD540E0273802B280300065945000004253228072140000000000004253200000000000000001
12610090021060400082021060410000000B4839120FE4D4664B6D890680C6EC4F70300088228000005296409062130000000000005296400000000000000001
126100900210604000820210604100000007A9C484B4DE84738857A74F4241D07D10300088230000005198309082150000000000005198300000000000000001
12610090021060400082021060410000000E0962BF651024819B3D27E77D1F516D40300088235000004953105012200000000000004953100000000000000001
12610090021060400082021060410000000E58E49A251D148D2A5BD9F564196F1A10300088275000005529109082180000000000005529100000000000000001
126100900210604000820210604100000000300279EAB414AEEAAEC95D10CF36A260300088278000005372608112120000000000005372600000000000000001
126100900210604000820210604100000003BEEC1C4CDEE411F8C06D5696272F3B30300136014000005394528042150000000000005394500000000000000001
12610090021060400082021060410000000028F686A9C2F4323A32ED428444E51730300136021000005051224112170000000000005051200000000000000001
12610090021060400082021060410000000A6A27370D0224210A0CD52D10C62699E0300075386000006027601102180000000000006027600000000000000001
126100900210604000820210604100000003335E3A14BDE4461ADF0C1F7AFB783C40300095508000003183208122130000000000003183200000000000000001
1261009002106040008202106041000000001B6DCE1D19B4D6995E484AFD8508EA30300121604000002942521042170000000000002942500000000000000001
126100900210604000820210604100000002B4D07DFD1784A9BB1A0F7AF9114E0930300121612000002728517122180000000000002728500000000000000001
126100900210604000820210604100000007B6CF1628DDF47D2932AD30917ED1EAA0300121613000002701716012270000000000002701700000000000000001
1261009002106040008202106041000000067216569D18440E0AA6364E8910B69910300135187000010789128042110000000000010789100000000000000001
126100900210604000820210604100000001CDA85BA3E174D5E893FE87A552459560300135188000010691028052160000000000010691000000000000000001
12610090021060400082021060410000000E6580DC090BA40FB832E6981593542F20300141406000003958901042120000000000003958900000000000000001
12610090021060400082021060410000000A4A7B9BB7D4F491D91AF7888CAE870650300141407000003923203052140000000000003923200000000000000001
1261009002106040008202106041000000034D25D9A19654F43AA337D1927FD62730300141408000003887531052190000000000003887500000000000000001
126100900210604000820210604100000006D772A5459FB4EE890DDBC358AC60E000300141409000003851930062160000000000003851900000000000000001
12610090021060400082021060410000000ACA3702EC55E424899DA49298830F0F00300141410000003816230072190000000000003816200000000000000001
12610090021060400082021060410000000F6DC8218926C4B8C9DF445FA58C19D970300092995000000971811052190000000000000971800000000000000001
12610090021060400082021060410000000408F2B3E554A4F59BBDB9422E7B7E0550300103230000009890714042140000000000009890700000000000000001
1261009002106040008202106041000000055AEC552C3B84C26A8107644D029FF200300122613000002375422032160000000000002375400000000000000001
12610090021060400082021060410000000969CB4C2F80945619858B66FD04EBD220300122614000002354021042110000000000002354000000000000000001
126100900210604000820210604100000008A24D4CA5A6241DF9140394DA217E8490300122615000002332621052190000000000002332600000000000000001
126100900210604000820210604100000008EBA4BDA70C24B72B4FDB5438B8E66F50300122616000002311221062170000000000002311200000000000000001
12610090021060400082021060410000000CC704411DD7B448AA1EE66B7FC73E6D00300110371000001872415092190000000000001872400000000000000001
12610090021060400082021060410000000ABF936BB4B4E4A50BBA7E1C91C7FA75D0300110372000001854615102140000000000001854600000000000000001
126100900210604000820210604100000007429137DF2924759ABEDEF273F8843DE0300110375000001801113012240000000000001801100000000000000001
126100900210604000820210604100000005405E201718140FE8548A359FA663DE80300092994000000980712042110000000000000980700000000000000001
12610090021060400082021060410000000C247F60EB1A744CB9C39D702F357DEA30300092997000000954012072110000000000000954000000000000000001
126100900210604000820210604100000001E922A09F8114D4991250B850EEAAE540300092998000000945009082150000000000000945000000000000000001
126100900210604000820210604100000009EB771A2FA554A7B8B0CB23E0039466B0300092999000000936108092170000000000000936100000000000000001
12610090021060400082021060410000000DD8B1BF046C04710A8630FAFA515344A0300093000000000927208102110000000000000927200000000000000001
126100900210604000820210604100000005CF30F12FED94F0EA1778D03F9DFF4EA0300078390000001444504062110000000000001444500000000000000001
1261009002106040008202106041000000013A21697AA284D30AA9CEF0401010B6C0300165098000000971801062110000000000000971800000000000000001
1261009002106040008202106041000000090786688417E40FF9C09C5E8B1A2FDD80300165099000000962901072180000000000000962900000000000000001
1261009002106040008202106041000000092797BFEC7D640189C4E223E415933E20300165101000000945030082140000000000000945000000000000000001
126100900210604000820210604100000000A40C245CD5041D5A7FEA41E603681B00300165103000000927229102120000000000000927200000000000000001
126100900210604000820210604100000002D2742A6D6B04A4BA37B36595FBB0A0A0300202955000000989615042100000000000000989600000000000000001
126100900210604000820210604100000004AAAE273D96A4D8BB1C8701285D959730300202962000000927211112100000000000000927200000000000000001
12610090021060400082021060410000000F554F1D0671E4C9A91311B60F99D518D0300098462000007601413042150000000000007601400000000000000001
12610090021060400082021060410000000975A637583C14D4BB50B9FD90B7106540300098463000007532313052110000000000007532300000000000000001
126100900210604000820210604100000009A4C63220B944596A04ABFDC4802326E0300098464000007463214062140000000000007463200000000000000001
